S00800002E737265631C
S315000000009035FF1FE5B30000F9AA0000F3B3000026
S31500000010F3B30000F3B30000F3B3000000000000E8
S31500000020000000000000000000000000F3B3000024
S31500000030F3B300000000000085B1040039B20400EB
S31500000040FD120000E56D00004D6E00004D6C0000D5
S315000000504D6C00004D6C0000A75200009951000045
S315000000604D520000F351000041590000955900001F
S31500000070492D00006F2B00009D2C00004D2A00002A
S31500000080FFFFFFFFFFFFFFFFFFFFFFFFFFFFFFFF7A
S31500000090FFFFFFFFFFFFFFFFFFFFFFFFFFFFFFFF6A
S315000000A0FFFFFFFFFFFFFFFFFFFFFFFFFFFFFFFF5A
S315000000B0FFFFFFFFFFFFFFFFFFFFFFFFFFFFFFFF4A
S31500000400FFFFFFFFFFFDFFFFFCFFFFFFFFFFFFFFFB
S31500000410FCFFFFFFFFFFFFFFFCFFFF00FFFFFF00EA
S31500000420FCFF0F20FFFF0F20FCFF7F40FFFF7F40F8
S31500000430FCFF0D40FFFF0D40FFFFFFFFFFFFFFFF2B
S31500000440FFFFFFFFFFFFFFFFFFFFFFFFFFFFFFFFB6
S31500000450FFFFFFFFFFFFFFFFFFFFFFFFFFFFFFFFA6
S31500000460FFFFFFFFFFFFFFFFFFFFFFFFFFFFFFFF96
S31500000470FFFFFFFFFFFFFFFFFFFFFFFFFFFFFFFF86
S31500000480FFFFFFFFFFFFFFFFFFFFFFFFFFFFFFFF76
S31500000490FFFFFFFFFFFFFFFFFFFFFFFFFFFFFFFF66
S315000004A0FFFFFFFFFFFFFFFFFFFFFFFFFFFFFFFF56
S315000004B0FFFFFFFFFFFFFFFFFFFFFFFFFFFFFFFF46
S315000004C0FFFFFFFFFFFFFFFFFFFFFFFFFFFFFFFF36
S315000004D0FFFFFFFFFFFFFFFFFFFFFFFFFFFFFFFF26
S315000004E0FFFFFFFFFFFFFFFFFFFFFFFFFFFFFFFF16
S315000004F0FFFFFFFFFFFFFFFFFFFFFFFFFFFFFFFF06
S31500000500BC04FE1FFD014400C804FE1FFA0143009F
S31500000510CC04FE1FFB014308240DFE1F0B000650F2
S31500000520200DFE1F0C000658280DFE1F0A00064867
S315000005304C0DFE1F70081500400DFE1F6D081508B6
S31500000540480DFE1F6F081510440DFE1F6E08151886
S31500000550C004FE1FFF014500C404FE1FFE0145083E
S31500000560DC0CFE1F77011408D00CFE1F740114105A
S31500000570D80CFE1F76011420D40CFE1F750114281A
S3150000058020000000200001002F0000002F000100C5
S315000005900C000100110000003000000030000100D6
S315000005A024000000240001002400020024000300AF
S315000005B024000400240005001300000017000000BA
S315000005C023000000210000002100010007000000B8
S315000005D007000100070002000700030007000400EF
S315000005E007000500070006000700070012000000CC
S315000005F044000000080000000B000000410000005D
S31500000600400000004000010004000000430000001C
S315000006102B0000002B000A002B000B002B000C0007
S315000006202B000D002B0001002B0002002B00030005
S315000006302B0004002B0005002B0006002B000700F2
S315000006402B0008002B0009000600000006000A0027
S3150000065006000B0006000C0006000D0006000E004A
S3150000066006000F0006000100060002000600030057
S315000006700600040006000500060006000600070046
S31500000680060008000600090015000000150001001C
S3150000069015000200310000002A000000450000009D
S315000006A01000000003010000030000000300010029
S315000006B00F0000000D0000002D00000042000000A9
S315000006C02C0000002C0001002C0002002C0003006E
S315000006D0320000002800000018000000140000008E
S315000006E014000100140002001400030014000400AA
S315000006F0140005001400060014000700140008008A
S315000007001400090034000000340001001600000047
S31500000710160001003500000036000000360001001A
S315000007202200000033000000330100002900000011
S3150000073010B5054C237833B9044B13B10448AFF315
S3150000074000800123237010BD1804FE1F0000000066
S315000007505429050008B5034B1BB103490348AFF301
S31500000760008008BD000000001C04FE1F542905007F
S3150000077090B587B000AFF860B9607A603B6000233F
S315000007803B610DE0FB689C6800233A687968B868AD
S31500000790A04778617B69002B06D03B6901333B613A
S315000007A03B69092BEEDD00E000BF7B6918461C376C
S315000007B0BD4690BD90B587B000AFF860B9607A606D
S315000007C03B6000233B610EE0FB68DC6897F828304D
S315000007D03A687968B868A04778617B69002B06D0CB
S315000007E03B6901333B613B69092BEDDD00E000BF4E
S315000007F07B6918461C37BD4690BD90B587B000AFE3
S31500000800F860B9607A603B6000233B6118E0FB68E2
S31500000810DC6801233A687968B868A04778617B6923
S31500000820002B0AD1FB689C6800233A687968B8688F
S31500000830A04778617B69002B06D03B6901333B6199
S315000008403B69092BE3DD00E000BF7B6918461C37D6
S31500000850BD4690BD80B58AB000AF786039607B68D0
S315000008607B627B6AD3F834311B683B627B6AD3F8C0
S3150000087038311B68FB617B6AD3F834319B68BB61F6
S315000008807B6AD3F838319B687B617B695B684FF084
S31500000890FF31F869984738613B69002B01D03B6905
S315000008A0AEE03B6800229A803B680022DA803B6813
S315000008B003221A726323FB7207F10B020123396AC2
S315000008C0B869FFF79AFF38613B69002B05D0BB6911
S315000008D01B69386A9847642392E0FB7A03F00403A5
S315000008E0002B02D03B6804221A7207F10C02042383
S315000008F0396AB869FFF73CFF38613B69002B05D0C0
S31500000900BB691B69386A9847642379E07B6A9B88D0
S3150000091019463B7BC3F30303DBB21B021AB27B7B94
S315000009201BB213431BB203FB01F3374A82FB0312CC
S315000009301A44D212DB17D31A1AB23B689A807B6A22
S31500000940DB881946BB7BC3F30303DBB21B021AB277
S31500000950FB7B1BB213431BB203FB01F32A4A82FB48
S3150000096003121A44D212DB17D31A1AB23B68DA8082
S315000009707B6A1B7F012B03D07B6A1B7F022B02D174
S315000009807B6A03221A777B6A1B7F032B1AD13B688B
S315000009901B7A032B16D17B6AB3F918203B68B3F98F
S315000009A004309A4207D17B6AB3F91A203B68B3F93F
S315000009B006309A4203D03B6802221A7202E03B6874
S315000009C001221A723B681A7A7B6A1A773B681B7A8D
S315000009D0042B0AD17B6AB3F918203B689A807B6A9C
S315000009E0B3F91A203B68DA8009E03B68B3F90420C2
S315000009F07B6A1A833B68B3F906207B6A5A833B6994
S31500000A0018462837BD4680BD8100088080B58AB06B
S31500000A1002AF78607B68FB61FB69D3F834319B6871
S31500000A20BB61FB69D3F834311B687B614B4B1B6A96
S31500000A30FA69B2F8302100211046984702204AF0A0
S31500000A405DF8BB691B69786998473861434B1B6A37
S31500000A50FA69B2F8302101211046984702204AF07F
S31500000A604DF800233B7374237B732723BB73042346
S31500000A70FB7307F10C020023009304237969B8691C
S31500000A80FFF798FE38613B69002B05D0BB691B69EF
S31500000A907869984764235DE004233B73C0237B7326
S31500000AA007F10C020023009302237969B869FFF766
S31500000AB081FE38613B69002B05D0BB691B697869EB
S31500000AC09847642346E022233B730C237B7307F18C
S31500000AD00C020023009302237969B869FFF76AFEC6
S31500000AE038613B69002B05D0BB691B69786998475B
S31500000AF064232FE00B233B7300237B7307F10C0267
S31500000B000023009302237969B869FFF753FE386121
S31500000B103B69002B05D0BB691B697869984764233C
S31500000B2018E0E0233B7307F10C0200230093012336
S31500000B307969B869FFF73EFE38613B69002B05D03D
S31500000B40BB691B6978699847642303E0FB69052242
S31500000B501A77002318462037BD4680BD64D60400A8
S31500000B60B0B58EB008AF786039607B687B61396854
S31500000B70786900F078FB38613B69002B01D03B694E
S31500000B80BCE03B685B69FB60FB681A687B69C3F87D
S31500000B903421FB685A687B69C3F838213B681A8898
S31500000BA07B699A803B685A887B69DA803B68DA8978
S31500000BB07B69A3F84025FB681A897B69A3F8302175
S31500000BC0FB68DA687B69C3F83C253B689A687B69F1
S31500000BD09A603B681A7B7B691A733B681A8A7B6941
S31500000BE0A3F842257B6900221A777B694FF6FF72CC
S31500000BF01A837B694FF6FF725A837B6903F12000E3
S31500000C0034230122002148F09DF97B69203300211D
S31500000C10184648F003FAB860BB68002B01D00823D9
S31500000C206CE07B69D3F834319B681B687A69D2F82B
S31500000C3034211068FA68126852681146984738617C
S31500000C403B69002B01D03B6958E07B69D3F83C3502
S31500000C505B687869984738613B69002B01D03B692E
S31500000C604CE07B69D3F838319B681B687A69D2F807
S31500000C7038211068FA6852685268114698473861F8
S31500000C803B69002B01D03B6938E07B69203318466D
S31500000C9048F0EEF97B69543324220021184648F0C7
S31500000CA0B5F8B860BB68002B01D0642326E07B69E9
S31500000CB003F178047D697B6903F59E733A6852688F
S31500000CC039684968B82006900120059000200490F4
S31500000CD0039102924FF48062019200932B46094AD7
S31500000CE00949204648F052FBB860BB68002B01D08A
S31500000CF0642303E07B69054A1A6000231846183707
S31500000D00BD46B0BDFD0F0000C8D5040043324954AE
S31500000D1080B48BB000AFF860B9607A603B60FB6866
S31500000D203B623B6A002B01D101234DE0BB68002BDF
S31500000D3001D1012348E07B68002B01D1012343E068
S31500000D403B6A1B68234A934201D007233CE00023F9
S31500000D507B62BB681B881A467B68B3F90430D31ADA
S31500000D60BA68128811467A68B2F904208A1A02FB18
S31500000D7003F3FB61BB685B881A467B68B3F90630F0
S31500000D80D31ABA68528811467A68B2F906208A1AC6
S31500000D9002FB03F3BB61FA69BB6913447B61BB6861
S31500000DA09B881A46BB689B8803FB02F33B617A6902
S31500000DB03B699A4202DD4FF496637B627B6A002BA5
S31500000DC001D07B6A00E0002318462C37BD465DF84B
S31500000DD0047B70474332495480B584B000AF7860D5
S31500000DE07B68FB60FB68002B01D1012314E0FB68E4
S31500000DF01B680B4A934201D007230DE0FB6854336E
S31500000E0000220221184648F087F8B860BB68002B1C
S31500000E1001D0642300E0002318461037BD4680BD8C
S31500000E204332495480B584B000AF78607B68FB607C
S31500000E30FB68002B01D1012314E0FB681B680B4AF9
S31500000E40934201D007230DE0FB68543300220121B1
S31500000E50184648F061F8B860BB68002B01D06423DF
S31500000E6000E0002318461037BD4680BD4332495482
S31500000E7080B586B000AF78607B687B617B69002BAC
S31500000E8001D1012320E07B691B68114A934201D0FE
S31500000E90072319E000233B617B6920333969184633
S31500000EA048F0BCF8F860FB68002B01D008230BE083
S31500000EB07B69D3F83C355B68786998477B69203352
S31500000EC0184648F0D5F8002318461837BD4680BDA9
S31500000ED04332495480B588B000AF78607B68BB6107
S31500000EE0BB69002B01D1012366E0BB691B68344A4C
S31500000EF0934201D007235FE0BB69D3F834319B6886
S31500000F007B61BB69D3F834311B683B61BB69D3F89D
S31500000F1038311B68FB60BB69D3F838319B68BB600E
S31500000F20BB68DB68F8689847F861FB69002B01D05D
S31500000F30FB6941E07B695B6838699847F861FB6942
S31500000F40122B04D17B695B6838699847F861FB69A5
S31500000F50002B01D0FB692FE0BB697833184648F0B7
S31500000F60D3FABB699B68002B0ED0BB691B69002BAB
S31500000F700AD0BB699B689B68DB68BA69926810688F
S31500000F80BA69116902229847BB695433184647F07B
S31500000F908BFFBB692033184648F02AF8BB697833C3
S31500000FA0184648F0BDFABB697833184648F096FAF9
S31500000FB0BB6900221A60002318462037BD4680BD53
S31500000FC04332495480B483B000AF78607B68002B0D
S31500000FD001D101230CE07B6808221A707B6801228C
S31500000FE05A707B6805229A707B680122DA700023AA
S31500000FF018460C37BD465DF8047B704790B58BB03C
S3150000100002AF78607B68BB6149F0EAFFF861BB69B3
S3150000101000221A6110E000233B73BB699B689B6842
S315000010209C68BB699B681868BB6903F1100107F1EE
S315000010300C020A23A0477861BB691B69002BEAD022
S31500001040BB691B6900221A70BB691B6901225A80A1
S31500001050BB691B69BA69127B5A7000233B61BB6985
S3150000106003F1540007F110020023009313460122F6
S31500001070032147F02FFF3B6903F00103002B0FD03C
S31500001080BB6903F1540007F110024FF0FF330093E0
S3150000109013460122022147F01DFFB869FFF7E8FE5B
S315000010A0BB69D3F83C351B68BA6912691146B86941
S315000010B0984778617B69002B16D1BB699B881A46D5
S315000010C0BB691B69B3F904309A4208DBBB69DB884C
S315000010D01A46BB691B69B3F906309A4211DABB6935
S315000010E01B6900221A720CE07B69652B05D1BB696E
S315000010F07833184648F008FA03E0BB691B690022FA
S315000011001A72BB691B691B7AFA691946B86900F03D
S315000011100BF80346002B3FF47DAF49F061FFF86101
S31500001120B86900F02AF875E780B586B000AFF860B8
S315000011300B467A60FB720123FB75FB7A012B05D007
S31500001140FB7A022B02D0FB7A002B11D149F048FF23
S315000011503861FB68B3F840356422B2FBF3F39BB207
S315000011601A467B6813443A699A4201D80023FB75F4
S31500001170FB7D18461837BD4680BD90B58BB002AFD3
S3150000118078600023FB8300233B7300233B6100232D
S315000011907B617B68B3F84235B42B1AD0B3F5877FF1
S315000011A032D05A2B00D044E07B681B69DB88FB8376
S315000011B07B681A697B681B69B2F90420DA807B6850
S315000011C0DA88FB8BD31A9AB27B681B6912B29A80B3
S315000011D02FE07B689A887B681B69B3F904309BB261
S315000011E0D31A9AB27B681B6912B29A807B68DA8836
S315000011F07B681B69B3F906309BB2D31A9AB27B6837
S315000012001B6912B2DA8014E07B681B699B88FB833A
S315000012107B681A697B681B69B2F906209A807B682D
S315000012209A88FB8BD31A9AB27B681B6912B2DA8052
S3150000123000BF7B689B689B681C697B689B68186815
S315000012407B68196907F10C02002300930023A0476D
S31500001250B861BB69002B02D17B6800221A6100BF0E
S315000012602437BD4690BD80B485B000AF7860396044
S315000012707B68002B01D1012320E03B68002B01D1C4
S3150000128001231BE03B685B69002B01D1012315E0BC
S315000012903B685B69FB60FB681B68002B01D101237F
S315000012A00CE0FB685B68002B01D1012306E0FB68BC
S315000012B0DB68002B01D1012300E000231846143718
S315000012C0BD465DF8047B704780B485B000AFEFF390
S315000012D00383BB60BB687B603B1DFB60FB681B88B0
S315000012E0C3F308039BB2DBB2103BDBB25BB218461A
S315000012F01437BD465DF8047B7047FFFF80B584B0A8
S3150000130000AFEFF30583BB60BB68184648F0BCFC32
S31500001310154B1B68002B1CD0134B1B685B6A1B68A4
S31500001320FB60114B1B685B6A2E22C3F8C020FB686A
S3150000133003F02003002B06D00B4B1B68083301215A
S31500001340184647F085FFFFF7BFFF0346184609F02A
S315000013503BFEEFF305837B607B68184648F092FC02
S3150000136000BF1037BD4680BD3404FE1F80B586B071
S3150000137000AF786039607B683B613968386900F096
S3150000138043FAF860FB68002B01D0FB6826E0396859
S31500001390386900F07DFAF860FB68002B01D0FB6825
S315000013A01CE03B68DA683B691A633B6900229A874E
S315000013B03B68DB687B6108E03B699B8F01339AB22F
S315000013C03B699A877B6904337B617B691B68002BC9
S315000013D0F2D13B69012283F83E20002318461837D4
S315000013E0BD4680BD80B588B000AF78607B68FB6085
S315000013F0FB68002B01D101233FE0FB6893F83E30E8
S31500001400012B01D0072338E0FB681B6BFB6100232F
S31500001410BB6122E0FB691B68002B02D14FF4FB6322
S315000014202BE000237B61FB691B685B683B6109E07D
S315000014303B691A1D3A611B68BB60BB681B6818468E
S3150000144047F09AFE7B695A1C7A61FA6912685288DB
S315000014509342EDD3FB690433FB61BB695A1CBA6145
S31500001460FA68928F9342D5D3FB68184647F0AAFCD8
S31500001470FB68002283F83E20002318462037BD462D
S3150000148080BD80B588B000AFF860B9607A603B6017
S31500001490FB68FB6100233B61FB69002B01D1012343
S315000014A04CE0BB68002B01D1012347E07B68002B91
S315000014B001D1012342E0FB6993F83E30012B01D0B4
S315000014C007233BE0BB6800221A60FB6907F11001A5
S315000014D03A68184647F0EEFBB861BB69002B1FD18E
S315000014E0FB695B6B3A6913447B610C2200217869C6
S315000014F04BF08CFA7A69937A43F0800393723A69D7
S31500001500BB681A60BB681B6800221A607B681B7880
S31500001510002B12D07A69937A43F0010393720CE0A0
S31500001520BB69102B02D14FF4FA6307E0BB69042BA9
S3150000153001D1142302E0642300E00023184620377B
S31500001540BD4680BD80B596B002AFF860B96013465F
S31500001550FB71FB68FB640023BB64B968F86C00F0A0
S315000015605FFAB864BB6C002B01D0BB6C6EE0FB6C01
S315000015705A6BBB6813447B64002387F8273000232B
S3150000158087F8263000233B620023FB6100233B647F
S31500001590EFF310833B633B6B3B6401237B637B6B05
S315000015A083F310887B6C9B7A23F07F03DBB2002BDE
S315000015B007D13B6CFB62FB6A83F3108840F2D97358
S315000015C044E07B6C5B68FB6307F1200007F12602B1
S315000015D007F1270107F11C030193FB7900930346EA
S315000015E0786C00F0D4FA97F82630002B15D0BB683B
S315000015F000221A607A6C937A6FF3410393727A6CC5
S31500001600937A6FF3C7139372B86847F0F1FBB86328
S31500001610BB6B002B01D0642318E03B6CBB62BB6A3A
S3150000162083F3108897F82730002B0ED03B6A002BE7
S3150000163002D001233B7501E000233B75FB6BBB61C8
S31500001640FB6907F1140210469847002318465037E5
S31500001650BD4680BD80B596B004AFF860B9607A60CB
S315000016603B600023BB63FB687B63B968786B00F063
S31500001670D7F9B863BB6B002B01D0BB6B60E07B6B0B
S315000016801B6B3B63002387F8473000233B64002332
S31500001690FB637B68002B09D07B685B68FB637B6818
S315000016A09B683B647B681B7887F847303A6BB96860
S315000016B0786B00F069F90346FB85FB8D002B02D1A0
S315000016C040F2D5733CE07B6B5A6BBB681344BB623C
S315000016D000237B62EFF31083FB61FB697B620123CE
S315000016E03B623B6A83F31088BB6A9B7A23F07F03D5
S315000016F0DBB2002B07D17B6ABB61BB6983F3108821
S3150000170040F2D9731CE0BB6AFA8D1A81BB6AFA6B88
S315000017101A60BB6A3A6C5A607B6A7B617B6983F3A9
S315000017201088BB6A029397F8473001933B6B00938E
S315000017303B6D3A68B968786B00F0BBF9B863BB6B70
S3150000174018464837BD4680BD80B588B000AFF86002
S31500001750B9607A603B60FB68BB610023FB61BB69D3
S31500001760002B01D101232FE0BB68002B01D10123FF
S315000017702AE07B68002B01D1012325E0BB6993F8A1
S315000017803E30012B01D007231EE07B6800221A6041
S315000017903A687968B86847F01BFD78617B69002B69
S315000017A002D10023FB610EE07B690A2B03D140F2D4
S315000017B0D673FB6107E07B69042B02D01423FB611F
S315000017C001E06423FB61FB6918462037BD4680BDF6
S315000017D080B483B000AF78607B68002B01D1012311
S315000017E00CE07B6808221A707B6801225A707B68BD
S315000017F003229A707B680122DA70002318460C37A0
S31500001800BD465DF8047B704780B483B000AF786056
S3150000181039607B68002B01D1012333E07B6893F8A4
S315000018203E30012B01D108232CE03B68002B01D16F
S31500001830012327E03B681B68002B01D1012321E02F
S315000018403B685A683B689B6810339A4202D840F25C
S31500001850D27317E03B689B68032B02D840F2D37320
S3150000186010E03B689B6803F00303002B02D040F2B4
S31500001870D37307E03B68DB68002B02D14FF4FB63B0
S3150000188000E0002318460C37BD465DF8047B704720
S3150000189090B589B002AF786039603B681B687B61A0
S315000018A03B685B683B617B6903F00303002B08D050
S315000018B07B6923F003037B613B69033323F0030356
S315000018C03B617B693A69002118464BF09FF83B68FB
S315000018D09B6810333A69B2FBF3F3FB60FB68002B9D
S315000018E002D140F2D2731BE03B689A687B685A6368
S315000018F07B68FA689A6378683B6819693B689B68F5
S3150000190003F10C027C69302301933B690093234663
S3150000191047F0F0F90346002B01D0642300E00023D2
S3150000192018461C37BD4690BD80B586B000AFF8603E
S31500001930B9603B601346FB71FB79012B08D107F1B7
S3150000194008033A681946F86847F022FC386107E050
S3150000195007F108033A681946F86847F059FC3861F8
S315000019603B69002B02D100237B6108E03B690B2B0E
S3150000197003D140F2D7737B6101E064237B617B690D
S3150000198018461837BD4680BD80B489B000AFF860F0
S31500001990B9607A600023FB830023BB8332E07B6857
S315000019A01B68002B01D1BB8B34E0BB681A787B68BF
S315000019B01B681B789A4222D10023BB617B681B6897
S315000019C05B687B6113E07B691A1D7A611B683B616A
S315000019D0BB685A783B691B799A4208D3BB685A7828
S315000019E03B695B799A4202D8BB8B0133BB83BB69E7
S315000019F05A1CBA617A68126852889342E3D37B68AC
S31500001A0004337B60FB8B5A1CFA83FA68928F9342ED
S31500001A10C5D3BB8B18462437BD465DF8047B70479B
S31500001A2080B487B000AF786039607B68002B01D145
S31500001A30012338E03B68002B01D1012333E07B68AA
S31500001A4093F83E30012B01D007232CE07B685B6BBB
S31500001A500C337B617B685B6904333B617B68DB68C5
S31500001A60013B7A69043202FB03F33A691344FB60D3
S31500001A703B683A699A4212D83B68FA689A420ED392
S31500001A803A683B69D31A7A690432B3FBF2F102FB76
S31500001A9001F29B1A002B05D040F2D17303E040F20D
S31500001AA0D17300E0002318461C37BD465DF8047B61
S31500001AB0704780B58EB000AFF860B9607A603B6061
S31500001AC000237B6300233B6355E0BB681A783B6CBD
S31500001AD01B681B789A424BD10023FB623B6C1B6848
S31500001AE05B68BB623CE0BB6A1A1DBA621B687B621C
S31500001AF0BB685A787B6A1B799A4231D3BB685A789D
S31500001B007B6A5B799A422BD87B6A186897F84420DF
S31500001B103B68B968FFF708FF38623B6A002B1FD0A5
S31500001B200023FB61EFF310833B613B69FB610123FB
S31500001B307B617B6983F31088BB6C1B89013B9AB27E
S31500001B40BB6C1A81FB69BB61BB6983F310887B6838
S31500001B50002B03D07B6A1A687B681A603B6A7B633A
S31500001B60FB6A5A1CFA623A6C126852889342BAD3DC
S31500001B703B6C04333B643B6B5A1C3A63FA68928FA6
S31500001B809342A2D37B6B18463837BD4680BD80B4DE
S31500001B9085B000AFF860B9607A603B603B7E03F0C9
S31500001BA00403DBB2002B04D0FA68937A43F00203F5
S31500001BB093723B7E03F00103DBB2002B1ED0FB6861
S31500001BC01B68002B0ED0BB6801221A70FB689B7A3B
S31500001BD0C3F34003DBB21A463B681A60FB681A6817
S31500001BE0FB691A607B6801221A70FB6800221A8161
S31500001BF0FA68937A6FF3000393722AE0FB681B89F5
S31500001C00002B05D0FB681B89013B9AB2FB681A8141
S31500001C10FB681B89002B1CD1FB681B68002B0ED0B0
S31500001C20BB6801221A70FB689B7AC3F34003DBB2E0
S31500001C301A463B681A60FB681A68FB691A60FB68FB
S31500001C409B7A03F00103DBB2002B02D17B680122F1
S31500001C501A7000BF1437BD465DF8047B7047FFFF5E
S31500001C6080B58AB000AF7860396000237B620023BC
S31500001C703B627B68FB613968F86900F0D9F8386225
S31500001C803B6A002B01D03B6A48E03B681A68FB6957
S31500001C901A62FB69181D1C230022002147F0ECFA8A
S31500001CA078627B6A002B01D0642337E03B681B68AF
S31500001CB0596807F10803142218464AF09CFE3B684F
S31500001CC01B79002B08D100233B6100237B61FB6954
S31500001CD0002283F8242007E0124B3B61FB697B61FD
S31500001CE0FB69012283F824203B681B689B681B68FC
S31500001CF0FA69126A126807F10801104698473862B5
S31500001D003B6A002B06D0FB690433184647F006FBF6
S31500001D103B6A03E0FB69044A1A6000231846283729
S31500001D20BD4680BD9D1E00004E45504F80B584B017
S31500001D3000AF786039607B68FB60FB68002B01D1DF
S31500001D40012318E0FB681B680D4A934201D0072364
S31500001D5011E0FB6804333968184647F0F5FAB860B5
S31500001D60BB680D2B01D1142305E0BB68002B01D005
S31500001D70652300E0002318461037BD4680BD00BF2E
S31500001D804E45504F80B483B000AF78607B68002B1F
S31500001D9001D1012304E0054B1A687B681A60002311
S31500001DA018460C37BD465DF8047B7047F8D504002D
S31500001DB080B584B000AF78607B68FB60FB68002B61
S31500001DC001D101232DE0FB681B6A002B01D1012301
S31500001DD027E0FB681B6A9B68002B01D1012320E0EA
S31500001DE0FB681B68114A934201D0072319E0FB6880
S31500001DF01B6A9B689B69002B01D1062311E0FB68D7
S31500001E001B6A9B689B69FA68126A126810469847B3
S31500001E10FB6800221A60FB680433184647F07EFA16
S31500001E20002318461037BD4680BD00BF4E45504FB3
S31500001E3080B483B000AF786039607B68002B01D135
S31500001E40012322E03B68002B01D101231DE03B6802
S31500001E501B689B68002B01D1012316E03B681B68B9
S31500001E609B681B68002B01D101230EE03B681B68B1
S31500001E705B68002B01D1012307E07B681B68064ADB
S31500001E80934201D1082300E0002318460C37BD46D3
S31500001E905DF8047B704700BF4E45504F80B584B057
S31500001EA000AF78607B68002B13D07B681B68002B23
S31500001EB00FD07B681B68FB60FB681B68064A934271
S31500001EC006D1FB6804330121184647F0C1F900E04A
S31500001ED000BF1037BD4680BD4E45504F80B483B01D
S31500001EE000AF0346FB7197F90730002B0BDBFB793C
S31500001EF003F01F02074997F907305B09012000FA32
S31500001F0002F241F8232000BF0C37BD465DF8047B82
S31500001F10704700BF00E100E080B483B000AF034625
S31500001F20FB7197F90730002B10DBFB7903F01F02DA
S31500001F30094997F907305B09012000FA02F22033BC
S31500001F4041F82320BFF34F8FBFF36F8F00BF0C37CD
S31500001F50BD465DF8047B704700E100E080B483B0C5
S31500001F6000AF0346FB7197F90730002B0CDBFB79BA
S31500001F7003F01F02074997F907305B09012000FAB1
S31500001F8002F2603341F8232000BF0C37BD465DF8EE
S31500001F90047B704700E100E080B483B000AF0346E5
S31500001FA03960FB7197F90730002B0ADB3B68DAB220
S31500001FB00C4997F907301201D2B20B4483F800237B
S31500001FC00AE03B68DAB20849FB7903F00F03043BE9
S31500001FD01201D2B20B441A7600BF0C37BD465DF82B
S31500001FE0047B704700E100E000ED00E080B485B0BE
S31500001FF000AFEFF30383BB60BB687B603B1DFB60F8
S31500002000FB681B88C3F308039BB2DBB2103BDBB251
S315000020105BB218461437BD465DF8047B7047FFFF78
S3150000202080B483B000AF03463960FB71064B1A6873
S3150000203097F90730DB001A443B681A6000BF0C377B
S31500002040BD465DF8047B7047D0DC040080B483B0E5
S3150000205000AF78607A6893796FF3000393717A68BA
S31500002060537A6FF3000353727A68137843F0800350
S3150000207013707A68537B6FF30003537300BF0C37FA
S31500002080BD465DF8047B704780B483B000AF7860CE
S315000020900B46FB707B68FA785A7300BF0C37BD4657
S315000020A05DF8047B704780B483B000AF78607A68CF
S315000020B0537B6FF30413537300BF0C37BD465DF8B3
S315000020C0047B704780B483B000AF78607B685B7B2D
S315000020D0C3F38003DBB283F00103DBB218460C378F
S315000020E0BD465DF8047B704780B483B000AF78606E
S315000020F07B68033318460C37BD465DF8047B704792
S3150000210080B483B000AF78607B68053318460C371F
S31500002110BD465DF8047B704780B483B000AF78603D
S315000021207A68937843F08003937000BF0C37BD46FE
S315000021305DF8047B704780B483B000AF78607A683E
S31500002140937843F04003937000BF0C37BD465DF8AB
S31500002150047B704780B483B000AF78607A68937868
S3150000216043F00403937000BF0C37BD465DF8047B53
S31500002170704780B483B000AF78607A6893786FF365
S31500002180C713937000BF0C37BD465DF8047B7047DC
S3150000219080B483B000AF78607A6893786FF3861363
S315000021A0937000BF0C37BD465DF8047B704780B462
S315000021B083B000AF78607A6893786FF38203937088
S315000021C000BF0C37BD465DF8047B704780B483B012
S315000021D000AF78607B689B78DBB243F02003DAB20D
S315000021E07B689A7000BF0C37BD465DF8047B70476C
S315000021F080B483B000AF78607B689B78DBB243F035
S315000022003003DAB27B689A7000BF0C37BD465DF8C2
S31500002210047B704780B483B000AF78607B689B789E
S31500002220DBB223F03003DAB27B689A7000BF0C375A
S31500002230BD465DF8047B704780B483B000AF78601C
S315000022407A68938A6FF30003938200BF0C37BD460A
S315000022505DF8047B704780B483B000AF78600B46AE
S31500002260FB7000BF7B681B79C3F3C013DBB2002B86
S31500002270F8D07B68FA78DA7000BF0C37BD465DF897
S31500002280047B704780B483B000AF78607B685B796D
S31500002290DBB218460C37BD465DF8047B704780B448
S315000022A083B000AF78607B6800221A707B680022DA
S315000022B09A707B6800221A717B68F2229A717B6899
S315000022C0FF225A707B68FF229A747B680022DA71BB
S315000022D07B6800221A727B6800225A727B68002291
S315000022E09A727B680022DA727B6800221A737B6816
S315000022F000225A737B6800221A737B684FF4784277
S315000023009A827B6800225A837B684022DA747B6853
S3150000231003221A7700BF0C37BD465DF8047B704771
S3150000232080B483B000AF78607A6893786FF3010366
S31500002330937000BF0C37BD465DF8047B704780B4D0
S3150000234083B000AF78607A689378022161F3010365
S31500002350937000BF0C37BD465DF8047B704780B4B0
S3150000236083B000AF78600B46FB701346BB707B688A
S31500002370FA785A70BB7803F00303D9B27A681378F7
S3150000238061F30103137000BF0C37BD465DF8047B93
S31500002390704780B483B000AF78607B681B79C3F365
S315000023A04013DBB218460C37BD465DF8047B704718
S315000023B080B483B000AF78607B681B79DBB223F012
S315000023C03803DAB27B681A7100BF0C37BD465DF878
S315000023D0047B704780B483B000AF78600B46FB7017
S315000023E0FB78002B05D07A68937943F00803937144
S315000023F004E07A6893796FF3C303937100BF0C37D7
S31500002400BD465DF8047B704780B483B000AF78604A
S315000024100B46FB70F9787A68D37961F38203D3713E
S3150000242000BF0C37BD465DF8047B704780B483B0AF
S3150000243000AF78607B68DB79C3F38003DBB21846B4
S315000024400C37BD465DF8047B704780B483B000AF9F
S3150000245078600B46FB707B68FA789A7400BF0C377D
S31500002460BD465DF8047B704780B58CB000AF7860E0
S3150000247039607B68FB620023BB6200237B623B689A
S31500002480002B01D1012305E1FB6A002B01D10123B9
S3150000249000E10023BB613B681B789BB27B83002372
S315000024A07B7614233B7607F1080300221A605A60F4
S315000024B09A60DA60794BDB6807F1080107F11802C8
S315000024C010469847B862BB6A002B01D0BB6AE1E0B0
S315000024D007F11803184608F017FEB862BB6A002B0E
S315000024E001D00A23D6E03C220021F86A4AF08EFA8F
S315000024F0BA68FB6A9A61FB6A9B693B623968F86A4B
S3150000250000F05BFDB862BB6A002B06D007F118032A
S31500002510184608F027FEBB6ABCE03B681B787B6266
S3150000252007F11803184608F0D3FB386AFFF7B7FE21
S31500002530386AFFF72DFE386AFFF71BFE386AFFF789
S3150000254036FEFB6A93F91D30184608F03DFDFB6A1E
S3150000255093F91C30184608F037FDFB6A93F91F30D3
S31500002560184608F031FDFB6A93F91E30184608F04C
S315000025702BFDFB6A93F91D301846FFF7EFFCFB6A4B
S3150000258093F91C301846FFF7E9FCFB6A93F91F30F4
S315000025901846FFF7E3FCFB6A93F91E301846FFF76F
S315000025A0DDFCFB6A93F91D301846FFF797FCFB6AC2
S315000025B093F91C301846FFF791FCFB6A93F91F301C
S315000025C01846FFF78BFCFB6A93F91E301846FFF797
S315000025D085FC386AFFF730FE386AFFF737FD396841
S315000025E0386A00F042FD3B68DB681946386A00F03D
S315000025F009FCB862BB6A002B06D007F1180318461F
S3150000260008F0B0FD012345E007F1180319463868C4
S3150000261000F08EFCB862BB6A002B06D007F11803E7
S31500002620184608F09FFDBB6A34E03B685B79012BD6
S3150000263003D1386AFFF783FE02E0386AFFF770FEBF
S31500002640386800F02EFD0346FB77FB7F1946386A93
S31500002650FFF71AFD3968386A00F055FD3B689A693C
S31500002660FB6A1A613B68DA69FB6A5A617B6ADAB20D
S31500002670FB6A1A703B685A69FB6ADA603B681A693A
S31500002680FB6A9A60FB6A022283F83420FB6A044ADA
S315000026905A60BB6A18463037BD4680BD58D704001D
S315000026A05349435380B588B002AFF860B9607A6089
S315000026B0FB70FB687B617B69002B01D101231AE06B
S315000026C0FB78012B01D0012315E07B68002B01D19B
S315000026D0012310E0BB68002B01D101230BE002238C
S315000026E00193FB7800937B68BA680021786900F053
S315000026F067F838613B6918461837BD4680BD80B516
S3150000270088B002AFF860B9607A60FB70FB687B61E5
S315000027107B69002B01D101231AE0FB78012B01D044
S31500002720012315E07B68002B01D1012310E0BB6873
S31500002730002B01D101230BE001230193FB780093C9
S315000027407B680022B968786900F03AF838613B691D
S3150000275018461837BD4680BD80B588B002AFF86010
S31500002760B9607A603B60FB687B617B69002B01D1B5
S31500002770012321E097F82030012B01D001231BE033
S315000027803B68002B01D1012316E0BB68002B01D169
S31500002790012311E07B68002B01D101230CE0032308
S315000027A0019397F8203000933B687A68B968786996
S315000027B000F006F838613B6918461837BD4680BDFB
S315000027C080B586B000AFF860B9607A603B60FB68A0
S315000027D05B683D4A934201D0072371E0FB683833BA
S315000027E0184608F03DFC0346002B01D00A2367E09B
S315000027F0FB689B697B617869FFF7CAFC7869FFF71C
S31500002800B8FC7869FFF7D3FCFB683A681A63FB6883
S3150000281000229A62FB680022DA62FB6897F82020A1
S3150000282083F83520FB68BA681A62FB687A685A62D0
S31500002830FB6897F8242083F8372000233B6197F83C
S31500002840243003F00103002B14BF01230023DAB266
S31500002850FB6883F836207869FFF725FCFB6893F957
S315000028601E30184608F0B0FBFB6893F91D30184679
S3150000287008F0AAFBFB6893F91C30184608F0A4FB85
S31500002880FB6893F91F30184608F09EFB97F8243032
S315000028903A681946F86800F0DFFC38613B69002B9E
S315000028A006D0FB683833184608F020FC3B6907E081
S315000028B097F824301A46F968786900F035FC3B69C8
S315000028C018461837BD4680BD5349435380B586B078
S315000028D000AF78607B687B617B69002B01D10123A7
S315000028E061E07B695B68324A934201D007235AE074
S315000028F07B6900225A607B699B693B613869FFF7F7
S3150000290047FC3869FFF735FC3869FFF750FC7B69EF
S3150000291093F91D301846FFF7FFFA7B6993F91C30CF
S315000029201846FFF7F9FA7B6993F91F301846FFF747
S31500002930F3FA7B6993F91E301846FFF7EDFA002388
S31500002940FB607B691B789BB2FB8100237B7314239E
S315000029503B7307F10C03184608F0ACF97B69DB689A
S31500002960002B08D07B69DB689B68DB697A69D268D3
S315000029701268104698477B699B68002B08D07B69D4
S315000029809B689B68DB697A6992681268104698476B
S315000029907B693833184608F0A9FB07F10C03184683
S315000029A008F0E0FB002318461837BD4680BD00BF7F
S315000029B05349435380B483B000AF78607B68002BE3
S315000029C001D1012304E0054B1A687B681A600023D5
S315000029D018460C37BD465DF8047B70470CD60400DC
S315000029E080B588B000AFF8607B600B46FB7213467B
S315000029F0BB720023BB61144B1B6907F11802F97AFD
S31500002A00F8689847F86197F91820BB6A1A70FB694D
S31500002A10002B14D1BB6A93F90030BA7A11461846D6
S31500002A20FFF7BAFABB6A93F9003007F114021146B0
S31500002A301846FFF7F5FA7B691B687A681A60FB6926
S31500002A4018462037BD4680BD58D7040080B586B0ED
S31500002A5000AFEFF30583FB60FB68184647F014F9F7
S31500002A6000237B60FFF7C2FA0346FB7597F9173020
S31500002A70184608F0A9FA3A1D97F917301146184674
S31500002A80FFF7CEFA7B681B681B683B613B69DB6816
S31500002A90002B3CD13B699B68002B38D13B699B6975
S31500002AA01846FFF70FFB0346002B03D13B699B6AD1
S31500002AB0002B09D03B6993F83730012B04D03B69D2
S31500002AC09B691846FFF755FB3B699A6A3B691B6B86
S31500002AD09A4220D23B6993F83630002B0BD03B69E3
S31500002AE098693B691A6A3B699B6A13441B781946C5
S31500002AF0FFF7B1FB05E03B699B69FF211846FFF72D
S31500002B00AAFB3B699B6A5A1C3B699A6203E03B69D4
S31500002B101A6B3B699A623B699A6A3B691B6B9A42DC
S31500002B201AD13B699B691846FFF723FB3B6993F96A
S31500002B301D30184608F048FA3B6993F91D301846CF
S31500002B40FFF70CFA3B6993F83730012B04D13B6948
S31500002B509B691846FFF7FEFAEFF30583BB60BB6877
S31500002B60184647F08FF800BF1837BD4680BD90B5B0
S31500002B7089B000AFEFF305837B617B69184647F0A8
S31500002B8083F80023FB60FFF731FA0346FB7797F9DA
S31500002B901F30184608F018FA07F10C0297F91F3093
S31500002BA011461846FFF73CFAFB681B681B68BB61B9
S31500002BB0BB69DB68002B37D1BB699B68002B33D11F
S31500002BC0BB699969BB695A6ABB69DB6AD41808464E
S31500002BD0FFF758FB03462370BB69DB6A5A1CBB69C7
S31500002BE0DA62BB699A6ABB691B6B9A4220D2BB69DF
S31500002BF093F83630002B0BD0BB699869BB691A6A0B
S31500002C00BB699B6A13441B781946FFF724FB05E052
S31500002C10BB699B69FF211846FFF71DFBBB699B6AD1
S31500002C205A1CBB699A6203E0BB691A6BBB69DA621C
S31500002C30BB69DA6ABB691B6B9A4224D1BB699B6983
S31500002C401846FFF7A5FABB699B691846FFF791FA84
S31500002C50BB699B691846FFF7DDFABB691B69002B48
S31500002C600CD0BB691B783B6001233B71BB695B6978
S31500002C70BB60BB691B693A4610469847BB69383347
S31500002C80184608F033FAEFF305833B613B691846B3
S31500002C9046F0F8FF00BF2437BD4690BD80B588B02A
S31500002CA000AFEFF305837B617B69184646F0ECFFC6
S31500002CB00023FB60FFF79AF90346FB7707F10C0246
S31500002CC097F91F3011461846FFF7AAF9FB681B68EB
S31500002CD01B68BB61BB699B691846FFF759FABB695C
S31500002CE09B691846FFF745FABB699B691846FFF7CB
S31500002CF05EFABB699B691846FFF78CFABB691B69CC
S31500002D00002B0CD0BB691B783B6001233B71BB6970
S31500002D105B69BB60BB691B693A4610469847BB694D
S31500002D203833184608F0E2F997F91F30184608F0CC
S31500002D304BF9EFF305833B613B69184646F0A2FF6A
S31500002D4000BF2037BD4680BD90B58BB000AFEFF316
S31500002D500583BB61BB69184646F096FF00233B61BD
S31500002D60FFF744F903461A4607F1100319461046C1
S31500002D70FFF756F93B691B681B687B627B6A9B6998
S31500002D803B627B6A1B78FB777B6A1B69002B14D03E
S31500002D90FB7F7B60386AFFF7FCFA0346002B02D004
S31500002DA006233B7201E002233B727B6A5B69FB6090
S31500002DB07B6A1B693A1D104698477B6A383318466A
S31500002DC008F094F9386AFFF7F3FAFFF70FF90346AC
S31500002DD0184608F0F9F80A4CFFF708F90346C0331D
S31500002DE054F823303B603B68EFF305837B617B69D6
S31500002DF0184646F047FF00BF2C37BD4690BD00BFC2
S31500002E000060004080B58CB000AF78603960002368
S31500002E10FB62FF23BB6200233B620023FB7500239A
S31500002E203B6100233B7307F10C03184607F0DAFDFC
S31500002E303D4B9B693A7B07F1100110469847786233
S31500002E407B6A002B01D001236AE03B68002B01D18D
S31500002E50012365E0354BFB6101237B620023FB62A6
S31500002E602AE03969FA6A13465B0013445B001A4686
S31500002E70FB6913441B881A463B6803FB02F3B1FB4C
S31500002E80F3F33B623B6A002B13D03B6AFF2B10D84F
S31500002E903B6A013BBB62FB6ADBB2FB75BB6ADBB21A
S31500002EA0FA7DD2B219467868FFF759FA00237B6299
S31500002EB005E0FB6A0133FB62FB6A032BD1D9786814
S31500002EC0FFF7B4FA0346002B29D00023BB61002389
S31500002ED0BB60FB7DDBB21A4613465B0013445B0006
S31500002EE01A46FB6913441B881A463B6803FB02F328
S31500002EF01B02BB61BB6A0133BA6902FB03F23B6981
S31500002F00B2FBF3F3BB60BB687F2B08D9BB68FF2B12
S31500002F1005D8BB68DBB219467868FFF796FA7B6A74
S31500002F2018463037BD4680BDE0D7040028D60400D9
S31500002F3080B584B000AF786039607B685B69002B30
S31500002F4014BF01230023DAB27B681B69002B0CBF78
S31500002F5001230023DBB25340DBB2002B01D1032354
S31500002F6027E00023FB607B685B69002B09D039688A
S31500002F70786800F0B7F9F860FB68002B01D0FB68B1
S31500002F8017E07B681B69002B12D03968786800F05F
S31500002F901FFAF860FB68002B0AD07B685B699B68A8
S31500002FA0DB697A685269126810469847FB6800E048
S31500002FB0002318461037BD4680BD80B586B002AFE7
S31500002FC0786039600023BB603B681B789BB27B81CD
S31500002FD000237B7214233B723B685A787B681C3350
S31500002FE007F1080000937B680221FFF7F9FCF860FF
S31500002FF0FB68002B01D0FB6833E03B689A787B685E
S315000030001D3307F1080000937B680521FFF7E8FCF4
S31500003010F860FB68002B01D0FB6822E03B68DA7899
S315000030207B681E3307F1080000937B680421FFF7D5
S31500003030D7FCF860FB68002B01D0FB6811E03B6809
S315000030401A797B681F3307F1080000937B6801211A
S31500003050FFF7C6FCF860FB68002B01D0FB6800E0B8
S31500003060FB6818461037BD4680BD80B584B000AFFA
S31500003070786039603B681B6AFB60FB68002B08D0F0
S31500003080FB681B78002B04D001217868FFF7BCF998
S3150000309003E000217868FFF7B7F900BF1037BD4697
S315000030A080BD80B485B000AF78600023FB737B6879
S315000030B05B79012B07D1FB7B43F00403FB73FB7B9E
S315000030C043F00103FB737B689B79012B08D17B6876
S315000030D0DB79002B10D1FB7B43F04003FB730BE045
S315000030E0FB7B63F07F03FB737B68DB79012B03D1EA
S315000030F0FB7B43F04003FB73FB7B18461437BD464E
S315000031005DF8047B704780B582B000AF78603960A7
S315000031103B685B7A002B03D101217868FFF75AF9E7
S3150000312000BF0837BD4680BD80B584B000AFF860EB
S31500003130B9601346FB71FB79012B06D1F868FEF7DF
S31500003140EBFFF868FFF742F808E0F868FEF7F3FFD0
S31500003150F868FEF7E1FFF868FFF74AF8BB689B6876
S31500003160002B03D1BB68DB68002B02D0F868FFF7A1
S3150000317089F800BF1037BD4680BDFFFF90B587B008
S3150000318000AFF8607A603B600B46FB7200237B6100
S315000031900223FB74FB7A022B04D1FB682D4A1A62C8
S315000031A00023FB74FB6893F83430FA7C9A423DD0D6
S315000031B0FB689B689B68DB68FA6892681268104631
S315000031C0984778617B69002B01D07B693DE0FB68FD
S315000031D09B685B681A68FB7C03F00303D9B2D3785B
S315000031E061F38303D370FB689B685B681B68FA68AE
S315000031F0126A5A60FB689B685B681B683A6892B201
S31500003200DA81FB689B685B681B687A689A60FB6872
S315000032109B689B689B68FA68926812681046984794
S315000032207861FB68FA7C83F834200DE0FB689B68C4
S315000032309B685C68FB689B681868FB68196A3B6852
S315000032409BB27A68A04778617B6918461C37BD46F1
S3150000325090BD00BF40D6040090B587B000AFF860BF
S315000032600B467A60FB727B68B3F5803F01D301237E
S3150000327033E000237B61FB689B68002B11D0FB6861
S315000032809B691846FEF730FF3861F97A7B683A6920
S31500003290F868FFF773FF78617B69002B01D07B69C3
S315000032A01BE0FB68DB68002B16D0FB7A012B13D0E2
S315000032B0FB689B691846FEF723FF3861FB68DB68ED
S315000032C09B685C68FB68DB681868FB685A6A7B6801
S315000032D09BB23969A04778617B6918461C37BD46A1
S315000032E090BDFFFFB0B58AB000AF786039600023AB
S315000032F07B627B685B699B68002B01D1012361E0DF
S315000033007B685B691B68002B01D101235AE07B684F
S315000033105B695B68002B01D1012353E07B685B6925
S315000033205B681B68002B01D101234BE07B685B695E
S315000033305B681B683B623A6AD3786FF38713D37076
S315000033403A6A9378022161F3830393703A6AD378D9
S315000033506FF38303D3703A6A93786FF345139370D0
S315000033603A6AD3786FF30513D3707B685B695B6841
S3150000337007F10C041D460FCD0FC42B6823600023F4
S31500003380BB60124B1B6907F1080202213868984797
S3150000339097F9083013F1210F01D1012312E07B893F
S315000033A03B820023BB7400237B617B685B699B685F
S315000033B01B687A685269126807F10C011046984733
S315000033C078627B6A18462837BD46B0BD58D70400D8
S315000033D0B0B58AB000AF7860396000237B627B6845
S315000033E01B699B68002B01D1012361E07B681B6987
S315000033F01B68002B01D101235AE07B681B695B68BF
S31500003400002B01D1012353E07B681B695B681B68B5
S31500003410002B01D101234BE07B681B695B681B68AD
S315000034203B623A6AD3786FF38713D3703A6A93781C
S315000034306FF3830393703A6AD378022161F38303AF
S31500003440D3703A6A93786FF3451393703A6AD378D8
S315000034506FF30513D3707B681B695B6807F10C0477
S315000034601D460FCD0FC42B6823600023BB60124B93
S315000034701B6907F1080205213868984797F9083053
S3150000348013F1210F01D1012312E07B893B82002336
S31500003490BB7400237B617B681B699B681B687A6829
S315000034A01269126807F10C011046984778627B6A28
S315000034B018462837BD46B0BD58D7040080B483B03F
S315000034C000AF0346FB7197F90730002B0BDBFB7946
S315000034D003F01F02074997F907305B09012000FA3C
S315000034E002F241F8232000BF0C37BD465DF8047B8D
S315000034F0704700BF00E100E080B483B000AF034630
S31500003500FB7197F90730002B10DBFB7903F01F02E4
S31500003510094997F907305B09012000FA02F22033C6
S3150000352041F82320BFF34F8FBFF36F8F00BF0C37D7
S31500003530BD465DF8047B704700E100E080B483B0CF
S3150000354000AF0346FB7197F90730002B0CDBFB79C4
S3150000355003F01F02074997F907305B09012000FABB
S3150000356002F2603341F8232000BF0C37BD465DF8F8
S31500003570047B704700E100E080B483B000AF0346EF
S315000035803960FB7197F90730002B0ADB3B68DAB22A
S315000035900C4997F907301201D2B20B4483F8002385
S315000035A00AE03B68DAB20849FB7903F00F03043BF3
S315000035B01201D2B20B441A7600BF0C37BD465DF835
S315000035C0047B704700E100E000ED00E080B485B0C8
S315000035D000AFEFF30383BB60BB687B603B1DFB6002
S315000035E0FB681B88C3F308039BB2DBB2103BDBB25C
S315000035F05BB218461437BD465DF8047B7047FFFF83
S3150000360080B483B000AF03463960FB71064B1A687D
S3150000361097F90730DB001A443B681A6000BF0C3785
S31500003620BD465DF8047B7047D0DC040080B485B0ED
S3150000363000AF78600B46FB707A681378F97861F30F
S31500003640C71313707B681B78C3F3C013DBB2FB731D
S315000036507B681B78C3F3C013DBB2FB737B681B78F4
S31500003660C3F3C013DBB2FB73FB7B00BF1437BD464D
S315000036705DF8047B704780B485B000AF78600B4678
S31500003680FB707A681378F97861F3861313707B6898
S315000036901B78C3F38013DBB2FB737B681B78C3F321
S315000036A08013DBB2FB737B681B78C3F38013DBB23A
S315000036B0FB73FB7B00BF1437BD465DF8047B704788
S315000036C080B483B000AF78600B46FB701346BB70C6
S315000036D0FB78002B2CD0FB78012B05D17A68D378A8
S315000036E043F00403D37012E0FB78022B05D17A680D
S315000036F0D37843F00203D37009E07A68D37843F0B5
S315000037000403D3707A68D37843F00203D370BB788E
S31500003710012B0CBF01230023D9B27A68D37861F359
S315000037200003D3707A68537943F00103537104E0C0
S315000037307A6853796FF30003537100BF0C37BD46A7
S315000037405DF8047B704780B483B000AF78607A6818
S31500003750537843F00203537000BF0C37BD465DF843
S31500003760047B704780B483B000AF786000BF7B688D
S315000037705B7AC3F34013DBB2002BF8D07B68DB7CAB
S31500003780DBB218460C37BD465DF8047B704780B443
S3150000379083B000AF78600B46FB707B68FA789A744A
S315000037A000BF0C37BD465DF8047B704780B485B01A
S315000037B000AF78607A68537843F0080353707B68EB
S315000037C05B78DBB2FB737B685B78DBB2FB737B6891
S315000037D05B78DBB2FB73FB7B00BF1437BD465DF83D
S315000037E0047B704780B483B000AF78607A68537802
S315000037F043F00403537000BF0C37BD465DF8047BED
S31500003800704780B582B000AF78600B46FB701346F8
S31500003810BB70BB78002B0DD07B68DB79DBB243F045
S315000038201F03DAB27B68DA7197F903301846FFF79F
S3150000383045FE0CE07B68DB79DBB223F01F03DAB2CE
S315000038407B68DA7197F903301846FFF755FE00BF1B
S315000038500837BD4680BD80B582B000AF78600B46A4
S31500003860FB701346BB70BB78002B0DD07B68DB79F1
S31500003870DBB243F02003DAB27B68DA7197F90330E2
S315000038801846FFF71BFE0CE07B68DB79DBB223F002
S315000038902003DAB27B68DA7197F903301846FFF72E
S315000038A02BFE00BF0837BD4680BD80B582B000AF95
S315000038B078600B46FB701346BB70BB78002B0DD0AF
S315000038C07B68DB79DBB243F04003DAB27B68DA71FE
S315000038D097F903301846FFF7F1FD0CE07B68DB79BA
S315000038E0DBB223F04003DAB27B68DA7197F9033072
S315000038F01846FFF701FE00BF0837BD4680BD80B5FC
S3150000390082B000AF78600B46FB701346BB70BB7885
S31500003910002B0DD07B68DB79DBB263F07F03DAB274
S315000039207B68DA7197F903301846FFF7C7FD0CE09C
S315000039307B68DB79DBB203F07F03DAB27B68DA718E
S3150000394097F903301846FFF7D7FD00BF0837BD4685
S3150000395080BD80B483B000AF78607B680022DA71E6
S3150000396000BF0C37BD465DF8047B704780B485B058
S3150000397000AF78607A68537A6FF3861353727B6868
S315000039805B7AC3F38013DBB2FB737B685B7AC3F3AA
S315000039908013DBB2FB737B685B7AC3F38013DBB205
S315000039A0FB73FB7B00BF1437BD465DF8047B704795
S315000039B080B483B000AF78607B6800225A7200BF83
S315000039C00C37BD465DF8047B704780B483B000AF0A
S315000039D078607B685B78C3F38013DBB218460C37DC
S315000039E0BD465DF8047B704780B483B000AF786055
S315000039F07B681B78C3F30003DBB283F00103DBB201
S31500003A0018460C37BD465DF8047B704780B485B018
S31500003A1000AF78607A68137843F0200313707B68F0
S31500003A201B78C3F34013DBB2FB737B681B78C3F3CD
S31500003A304013DBB2FB737B681B78C3F34013DBB226
S31500003A40FB73FB7B00BF1437BD465DF8047B7047F4
S31500003A5080B483B000AF78607B681B78C3F34013F3
S31500003A60DBB283F00103DBB218460C37BD465DF8C6
S31500003A70047B704780B485B000AF78600023FB7389
S31500003A807B685B7AC3F30003DBB2002B08D0FB7BB9
S31500003A9043F00103FB737A68537A6FF300035372A2
S31500003AA07B685B7AC3F34003DBB2002B08D0FB7B59
S31500003AB043F00203FB737A68537A6FF34103537240
S31500003AC07B685B7AC3F30013DBB2002B08D0FB7B69
S31500003AD043F01003FB737A68537A6FF3041353723F
S31500003AE07B685B7AC3F38003DBB2002B08D0FB7BD9
S31500003AF043F00403FB737A68537A6FF382035372BD
S31500003B007B685B7AC3F3C003DBB2002B08D0FB7B78
S31500003B1043F00803FB737A68537A6FF3C303537257
S31500003B20FB7B18461437BD465DF8047B704780B4AE
S31500003B3083B000AF78607B685B78C3F3C003DBB209
S31500003B4018460C37BD465DF8047B704780B483B0D9
S31500003B5000AF78607B685B7AC3F30003DBB218467C
S31500003B600C37BD465DF8047B704780B485B000AF66
S31500003B7078607B689B78C3F30203DBB2FB73FB7B45
S31500003B80002B01D10823FB73FB7B0133FB73FB7B0B
S31500003B9018461437BD465DF8047B704780B483B081
S31500003BA000AF78607A6813786FF3041313707A683D
S31500003BB0137843F00403137000BF0C37BD465DF85D
S31500003BC0047B704780B483B000AF78607A6813795D
S31500003BD043F04003137100BF0C37BD465DF8047B0C
S31500003BE0704780B483B000AF78607A6813796FF35A
S31500003BF08613137100BF0C37BD465DF8047B704712
S31500003C0080B483B000AF78607A68537A6FF3C303E9
S31500003C10537200BF0C37BD465DF8047B704780B415
S31500003C2083B000AF78607A68537A6FF304135372E7
S31500003C307A68537A6FF3C303537200BF0C37BD46DD
S31500003C405DF8047B704780B485B000AF78607A6811
S31500003C50137943F0100313717B681B79C3F30013C8
S31500003C60DBB2FB737B681B79C3F30013DBB2FB7318
S31500003C707B681B79C3F30013DBB2FB73FB7B7A68AB
S31500003C80137943F00803137100BF1437BD465DF87E
S31500003C90047B704780B485B000AF78607A6813798A
S31500003CA043F0100313717B681B79C3F30013DBB277
S31500003CB0FB737B681B79C3F30013DBB2FB737B6872
S31500003CC01B79C3F30013DBB2FB73FB7B7A681379B2
S31500003CD06FF3C303137100BF1437BD465DF8047B51
S31500003CE0704780B483B000AF78607B6812331846A3
S31500003CF00C37BD465DF8047B704780B483B000AFD7
S31500003D0078607B68133318460C37BD465DF8047B34
S31500003D10704780B582B000AF78600B46FB7097F9AC
S31500003D200330184607F050F997F903301846FFF7A5
S31500003D3005FC97F90330012219467868FFF7B5FDAF
S31500003D4000BF0837BD4680BD80B483B000AF786041
S31500003D507B685B78C3F3C013DBB218460C37BD46ED
S31500003D605DF8047B704780B483B000AF78600B4683
S31500003D70FB70FB7863F01F03DAB27B681A7400BF2E
S31500003D800C37BD465DF8047B704780B483B000AF46
S31500003D9078600B46FB70FB7863F01F03DAB27B6832
S31500003DA05A7400BF0C37BD465DF8047B704780B47B
S31500003DB083B000AF78600B46FB70FB7803F0070317
S31500003DC0D9B27A68937861F30613937000BF0C3703
S31500003DD0BD465DF8047B704780B483B000AF786061
S31500003DE00B46FB707A685379F97861F34103537196
S31500003DF000BF0C37BD465DF8047B704780B483B0C6
S31500003E0000AF78600B46FB707A685379F97861F3F6
S31500003E108203537100BF0C37BD465DF8047B7047C3
S31500003E2080B483B000AF78600B46FB707A68537934
S31500003E30F97861F3C303537100BF0C37BD465DF8D3
S31500003E40047B704780B483B000AF78600B46FB708C
S31500003E507A685379F97861F30413537100BF0C370C
S31500003E60BD465DF8047B704780B483B000AF7860D0
S31500003E700B46FB70FB78002B10D0FB78013BDBB2C6
S31500003E8003F00303D9B27A68137961F3010313715E
S31500003E907A68537943F02003537109E07A681379FD
S31500003EA06FF3010313717A6853796FF345135371F6
S31500003EB000BF0C37BD465DF8047B704780B483B005
S31500003EC000AF78600B46FB707A685379F97861F336
S31500003ED0C713537100BF0C37BD465DF8047B7047AE
S31500003EE080B483B000AF786039603B6803F00703A5
S31500003EF0D9B27A68D37861F30613D37000BF0C3752
S31500003F00BD465DF8047B704780B483B000AF78602F
S31500003F107B68002B01D1012304E0054B1A687B68FE
S31500003F201A60002318460C37BD465DF8047B7047BF
S31500003F3044D60400B0B58AB000AF786039607B68BB
S31500003F407B623968786A01F0A5FC38623B6A002B0F
S31500003F5001D03B6AA7E00023FB613B681B789BB25C
S31500003F60FB8300237B7715233B7707F10C030022A5
S31500003F701A605A609A60DA604D4BDB6807F10C01F3
S31500003F8007F11C021046984738623B6A002B01D0A5
S31500003F903B6A88E03B685B68464A934206D17B8A67
S31500003FA003F00403002B01D103237CE007F11C037B
S31500003FB0184607F0A9F838623B6A002B01D03B6A25
S31500003FC071E03B685B6A1A787B6A83F85220FA686C
S31500003FD07B6ADA623968786A01F058FA38623B6AB5
S31500003FE0002B06D007F11C03184607F0BBF83B6A06
S31500003FF059E07A6A3B6814461D460FCD0FC40FCDB3
S315000040000FC495E8030084E8030007F11C03194672
S31500004010786A00F025FC38623B6A002B0BD007F16A
S315000040201C03184606F046FE07F11C03184607F067
S3150000403099F83B6A37E03968786A00F0D9FB38624C
S315000040403B6A002B0BD007F11C03184606F032FE24
S3150000405007F11C03184607F085F83B6A23E07B6AE4
S31500004060002283F851207B6A00225A637B6A002271
S315000040709A637B6A0022DA637B6A00221A647B6A8F
S31500004080002283F849207B6A002283F84A207B6A53
S31500004090002283F84B207B6A002283F84C207B6A3F
S315000040A0054A9A62002318462837BD46B0BD00BFB0
S315000040B058D7040040420F004349495280B584B0A6
S315000040C000AF78607B68FB60FB68002B01D10123A1
S315000040D037E00023BB60FB689B6A1C4A934201D011
S315000040E007232EE0F86800F005FBB860FB680022A5
S315000040F09A62FB689B69002B08D0FB689B699B68EA
S31500004100DB69FA689269126810469847FB685B6932
S31500004110002B08D0FB685B699B68DB69FA6852690B
S31500004120126810469847F86800F030FCFB68513377
S31500004130184606F0DBFFBB68002B01D0BB6800E029
S31500004140002318461037BD4680BD00BF434949527B
S3150000415080B58AB000AFF860B9607A60FB70FB6822
S315000041607B627B6A002B01D1012386E0BB68002BB2
S3150000417001D1012381E07B68002B01D101237CE082
S3150000418000233B627B6A9B6A3E4A934201D0072327
S3150000419073E07B6A5133184606F062FF38623B6A69
S315000041A0002B01D00A2368E07B6A9B69002B1CD098
S315000041B07B68FB6107F1140300221A605A607B6A70
S315000041C09B699B689B697A6A9269126807F1140178
S315000041D0104698477B69FA699A4206D37B6A51333F
S315000041E0184606F083FF172347E07B6ABA685A63CE
S315000041F07B6A7A689A637B6AFA7883F84A207B6AD4
S31500004200012283F849207B6A9B7A012B13D17B6AB2
S31500004210002283F845207B6A1B895B005BB243F072
S3150000422001035BB2DAB27B6A83F844207B6A01221F
S3150000423083F8462017E07B6A1B89DB099BB2DBB259
S3150000424003F00E03DBB263F00F03DAB27B6A83F886
S3150000425045207B6A1B89DAB27B6A83F844207B6A35
S31500004260032283F84620786A00F040FD38623B6AF4
S31500004270002B01D03B6A00E0002318462837BD46D4
S3150000428080BD00BF4349495280B58AB000AFF8608F
S31500004290B9607A60FB70FB687B627B6A002B01D198
S315000042A0012381E0BB68002B01D101237CE00023C0
S315000042B03B627B6A9B6A3E4A934201D0072373E0C6
S315000042C07B6A5133184606F0CBFE38623B6A002BF8
S315000042D001D00A2368E07B6A5B69002B1CD07B68EF
S315000042E0FB6107F1140300221A605A607B6A5B695E
S315000042F09B689B697A6A5269126807F11401104635
S3150000430098477B69FA699A4206D37B6A5133184605
S3150000431006F0ECFE172347E07B6ABA685A637B6AAD
S315000043207A689A637B6A7A68DA637B6AFA7883F8D2
S315000043304A207B6A002283F849207B6A9B7A012BFC
S3150000434010D17B6A002283F845207B6A1B89DBB289
S315000043505B00DAB27B6A83F844207B6A012283F829
S31500004360462017E07B6A1B89DB099BB2DBB263F050
S315000043700F03DBB223F00103DAB27B6A83F8452030
S315000043807B6A1B89DAB27B6A83F844207B6A022245
S3150000439083F84620786A00F0A9FC38623B6A002B55
S315000043A001D03B6A00E0002318462837BD4680BD91
S315000043B04349495280B584B000AF78607B68FB60A2
S315000043C0FB68002B01D101230BE0FB689B6A074ABF
S315000043D0934201D0072304E0F86800F08BF9B86037
S315000043E0BB6818461037BD4680BD00BF43494952D9
S315000043F080B584B000AF78600B467B8013467B7037
S315000044007B68FB600023BB60FB68002B01D10123A6
S315000044101DE0FB689B6A104A934201D0072316E011
S31500004420FB685133184606F01BFEB860BB68002BCC
S3150000443001D00A230BE0FB687A881A81FB687A7838
S315000044409A72FB685133184606F050FEBB68184650
S315000044501037BD4680BD00BF4349495280B586B07E
S3150000446000AF78600B46FB707B68DB69002B1AD0C7
S315000044707B689B6B7B617B681B6ABB607B68DB6BC5
S315000044807A69D31AFB60FB783B747B6893F85330E8
S315000044907B747B68DB6907F10802104698477B68E6
S315000044A0002283F84B207B68DB6A1846FFF751FA37
S315000044B07B6893F933301846FFF71EF87B6893F94B
S315000044C030301846FFF718F87B6893F932301846F3
S315000044D0FFF712F87B6893F931301846FFF70CF8AE
S315000044E07B685133184606F001FE00BF1837BD46FB
S315000044F080BDFFFFF0B58FB000AF786011237B63FE
S3150000450064237B6201233B630023FB624FF00003BD
S315000045104FF00004C7E906344FF000034FF00004E3
S31500004520C7E904340023FB60002387F82B300023FF
S3150000453087F82A30002387F829300023BB606B4BAD
S315000045409B6907F10C0211460120984778637B6B43
S31500004550002B01D07B6BC4E0FB6819464FF00002CC
S315000045607B6A4FF0000403FB02F501FB04F02844CC
S31500004570A1FB033402191446C7E90434C7E904341D
S3150000458039E03B6B4FF000041A462346D7E9040195
S3150000459047F00EF903460C46184621467B685B68D1
S315000045A04FF000041A46234647F002F903460C462C
S315000045B0C7E906347B6A013B19464FF00002D7E98A
S315000045C00634CD1842EB0406284631467B6A4FF086
S315000045D000041A46234647F0EBF803460C46FB62F6
S315000045E0FB6A402B0BD93B6B5B003B6397F82B3088
S315000045F0013387F82B303B6B802BC2D900E000BF1C
S315000046003B6B802B6CD8FB6A5B0887F82930FB6A0A
S31500004610DAB297F82930D31A87F82A3097F82A3071
S31500004620062B2DD97B685B68314A93420AD197F8ED
S315000046302930063B87F8293097F82A30063B87F859
S315000046402A301DE097F82B30002B0CBF01230023E6
S31500004650DBB2DBB297F82920D31ADBB2033B87F82B
S31500004660293097F82B30002B0CBF01230023DBB237
S31500004670DBB297F82A20D31ADBB2033B87F82A303D
S315000046807B689B8907F108021946386B01F0D2F85E
S315000046907B68DB6A97F8292011461846FFF763FB0B
S315000046A07B68DB6A97F82A2011461846FFF76DFBF0
S315000046B07B68DB6A97F82B2011461846FFF777FBD5
S315000046C07B68DB6A01211846FFF7CEFB7B68DB6A55
S315000046D0BA68D2B211461846FFF702FC00237B6384
S315000046E07B6B18463C37BD46F0BD00BFE0D70400E3
S315000046F0801A060080B588B000AF78607B685B6979
S31500004700FB61FB69002B20D07B6893F84930DBB254
S3150000471083F00103DBB2002B17D00023BB75FB69C6
S315000047209B689B69FA69126807F110011046984761
S31500004730BB7D002B09D0FB699B685B69FA6912682F
S31500004740104698477B680122DA637B689B69BB61E8
S31500004750BB69002B1DD07B6893F84930DBB2002B78
S3150000476017D00023BB73BB699B689B69BA69126843
S3150000477007F1080110469847BB7B002B09D0BB699F
S315000047809B685B69BA691268104698477B68012284
S31500004790DA637B68DB6B002B0BD17B6893F84C30BC
S315000047A0DBB2002B05D17B6893F84B30DBB2002BD4
S315000047B019D0786800F07EF901217868FFF74EFE7F
S315000047C07B680022DA637B6893F846207B6883F86F
S315000047D048207B689A6B7B681A647B68002283F8A2
S315000047E04C20122300E0002318462037BD4680BD2A
S315000047F080B584B000AF786039600023FB60002389
S31500004800BB603B689B69002B09D03968786800F06B
S31500004810ADFEF860FB68002B01D0FB681BE03B682F
S315000048205B69002B16D03968786800F051FFB860D4
S31500004830BB68002B0ED03B689B69002B08D03B68F9
S315000048409B699B68DB693A689269126810469847CB
S31500004850BB6800E0002318461037BD4680BDFFFF49
S3150000486080B584B000AF786039600023FB6038689B
S3150000487006F02EFA7B68DB6A00211846FEF7D6FEA4
S315000048807B68DB6A01211846FEF7F5FE7B68DB6A6A
S315000048901846FFF78DF87B6893F93330184606F013
S315000048A093FB7B6893F933301846FEF747FE7B6827
S315000048B093F93030184606F087FB7B6893F9303061
S315000048C01846FEF73BFE7B6893F93230184606F031
S315000048D07BFB7B6893F932301846FEF72FFE7B6828
S315000048E093F93130184606F06FFB7B6893F9313047
S315000048F01846FEF723FE7B68DB6A01211846FEF7A1
S3150000490095FE7868FFF7F6FDF860FB68002B01D08E
S31500004910FB6835E07B685B681B4A934205D17B6880
S31500004920DB6A01211846FFF7C9FA7B68D86A7B68FB
S3150000493093F852301A460221FEF7C2FE7B68DB6A04
S3150000494001211846FFF748FA7B68DB6A0121184601
S31500004950FFF754FA7B68DB6A00211846FFF760FA16
S315000049607B68DB6A01211846FFF76CFA786800F06D
S3150000497046F87B68DB6A00211846FEF77CFEFB687A
S3150000498018461037BD4680BD40420F0080B584B042
S3150000499000AF78607B68DB6A1846FEF7DAFF7B6853
S315000049A093F933301846FEF7A7FD7B6893F930304C
S315000049B01846FEF7A1FD7B6893F932301846FEF7DC
S315000049C09BFD7B6893F931301846FEF795FD002371
S315000049D0FB6015233B737B681B789BB2FB8100232E
S315000049E07B7307F10C03184606F064F907F10C0314
S315000049F0184606F0B7FB00BF1037BD4680BD80B530
S31500004A0082B000AF78607B68D86A7B6893F93330F0
S31500004A1001221946FEF7F5FE7B68D86A7B6893F992
S31500004A20303001221946FEF716FF7B68D86A7B688C
S31500004A3093F9323000221946FEF737FF7B68D86AB1
S31500004A407B6893F9313001221946FEF758FF00BF03
S31500004A500837BD4680BD80B582B000AF78600B4692
S31500004A60FB7013E07B68DB6A1846FEF7CFFF00BFDA
S31500004A707B68DB6A1846FEF7EBFF034683F001030B
S31500004A80DBB2002BF4D1FB78013BFB70FB78002BEB
S31500004A90E8D17B68DB6A1846FEF7A6FF0346002BC3
S31500004AA004D07B68DB6A1846FFF778F800BF083742
S31500004AB0BD4680BD80B584B000AF78607B68DB6A98
S31500004AC01846FEF746FF7B6893F933301846FEF723
S31500004AD013FD7B6893F930301846FEF70DFD7B68B1
S31500004AE093F932301846FEF707FD7B6893F93130AB
S31500004AF01846FEF701FD7B68DB6A1846FEF765FF80
S31500004B000346002B3DD07B68DB6A1846FFF72DF87D
S31500004B100346FB73FB7B092B04D0FB7B19467868A5
S31500004B20FFF799FF7B68DB6A1846FEF73FFE7B6856
S31500004B30D86A7B6893F852301A460221FEF7C0FD08
S31500004B400023BB7306E07B68DB6A1846FEF7FEFFB0
S31500004B500346BB737B68DB6A1846FEF7E8FF03462D
S31500004B60002B06D0BB7BDBB283F00103DBB2002B4C
S31500004B70E9D1BB7BDBB2002B03D009217868FFF7B4
S31500004B806AFF7B68DB6A00211846FEF74FFD7B68EB
S31500004B90DB6A01211846FEF76EFD7B68DB6A184664
S31500004BA0FEF706FF7B6893F93330184606F00CFAD9
S31500004BB07B6893F933301846FEF7C0FC7B6893F99F
S31500004BC03030184606F000FA7B6893F93030184604
S31500004BD0FEF7B4FC7B6893F93230184606F0F4F918
S31500004BE07B6893F932301846FEF7A8FC7B6893F988
S31500004BF03130184606F0E8F97B6893F931301846EB
S31500004C00FEF79CFC7B68DB6A01211846FEF70EFD69
S31500004C107B68DB6A00211846FEF72DFD00BF1037C2
S31500004C20BD4680BD90B585B000AF78607B685B6996
S31500004C30FB60FB68002B23D07B6893F84930DBB21E
S31500004C4083F00103DBB2002B1AD07B689B6B002B31
S31500004C5016D0FB689B685C68FB6818687B68596BB4
S31500004C607B68DB6B9BB20022A0477B680022DA637D
S31500004C707B689A6B7B681A647B68012283F84F20F5
S31500004C8000BF1437BD4690BD90B585B000AF7860C3
S31500004C907B689B69FB60FB68002B23D07B6893F8DD
S31500004CA04930DBB2002B1DD07B689B6B032B19D9D7
S31500004CB0FB689B685C68FB6818687B685A6B7B6856
S31500004CC09B6B9BB2033B9BB20021A0477B680322F0
S31500004CD0DA637B689B6BDA1E7B681A647B68012249
S31500004CE083F84E2000BF1437BD4690BD80B584B012
S31500004CF000AF78607C23FB600123FB727B68002297
S31500004D0083F848207B6800221A647B689A6B7B686C
S31500004D10DA637B6893F846207B6883F847207B68D4
S31500004D20002283F84B207B68002283F84D207B68A5
S31500004D30002283F84E207B68002283F84F207B6890
S31500004D40002283F850207B6893F84C30DBB283F066
S31500004D500103DBB2002B52D00DE07B68DB6A1846FC
S31500004D60FEF7F2FF034683F00103DBB2002B06D108
S31500004D70FB68013BFB60FB68002BEED100E000BF47
S31500004D80FB68002B06D17B685133184606F0AEF956
S31500004D90082371E07B68DB6A1846FEF709FE7B682C
S31500004DA093F93330184606F00FF97B6893F93330E0
S31500004DB01846FEF7C3FB7B6893F93030184606F0B9
S31500004DC003F97B6893F930301846FEF7B7FB7B682A
S31500004DD093F93230184606F0F7F87B6893F93230CB
S31500004DE01846FEF7ABFB7B6893F93130184606F0A0
S31500004DF0EBF87B6893F931301846FEF79FFB7B682A
S31500004E00D86A7B6893F852301A460221FEF758FC9E
S31500004E107868FFF7F4FD7B6893F84C30DBB283F0DB
S31500004E200103DBB2002B05D07B68DB6A1846FEF770
S31500004E308AFC03E07B68002283F84C207B68DB69F0
S31500004E40002B18D107E07B6893F85130DBB2002BBA
S31500004E5001D10023FB72FB7ADBB2002BF3D17B6816
S31500004E6093F84B30DBB2002B05D07B68002283F829
S31500004E704B20122300E0002318461037BD4680BDA4
S31500004E8080B588B000AFF8607B600B46FB721346B6
S31500004E90BB720023BB61144B1B6907F11802F97A38
S31500004EA0F8689847F86197F91820BB6A1A70FB6989
S31500004EB0002B14D1BB6A93F90030BA7A1146184612
S31500004EC0FEF75AFBBB6A93F9003007F1140211464C
S31500004ED01846FEF795FB7B691B687A681A60FB69C2
S31500004EE018462037BD4680BD58D7040080B584B02B
S31500004EF000AF78607B6893F84D30DBB283F0010336
S31500004F00DBB2002B27D07B689B6B022B04D87B6817
S31500004F10DB6A1846FEF756FE7B68DB6B012B05D174
S31500004F207B68DB6A1846FEF78EFE04E07B68DB6A68
S31500004F301846FEF7AFFE7868FFF7A6FE7B68DB6AC9
S31500004F401846FEF70FFC0346FB73FB7B7B680122CA
S31500004F5083F84D2011E07B6893F84E30DBB2002BCE
S31500004F6004D07B68002283F84E2006E07B68DB6B6A
S31500004F70002B02D0786800F0C3F900BF1037BD4699
S31500004F8080BD80B582B000AF78607B6893F847300B
S31500004F90002B03D0786800F00CFA3FE07B6893F8AA
S31500004FA04930DBB283F00103DBB2002B36D07B68DD
S31500004FB093F84F30DBB2002B04D07B68002283F8D5
S31500004FC04F2018E07B68DB6B002B14D07B68D86A17
S31500004FD07B685A6B7B681B6C13441B781946FEF77B
S31500004FE0D6FB7B681B6C5A1C7B681A647B68DB6B80
S31500004FF05A1E7B68DA637B68DB6B002B0ED17B68FD
S3150000500093F931301846FEF777FA7B68DA6A7B68DF
S3150000501093F9323019461046FEF77BFE00BF08377B
S31500005020BD4680BD80B582B000AF78607B6893F8DE
S315000050304930DBB2002B17D07B6893F84730012B41
S3150000504012D17B6893F85030DBB283F00103DBB2F8
S31500005050002B09D07B68DB6A1846FEF7C3FB7B682A
S31500005060012283F850202DE07B68DB6B002B29D1D1
S315000050707B6893F84A30DBB2002B1ED07B6893F92D
S315000050803130184605F0A0FF7B6893F93130184699
S31500005090FEF754FA7B68DB6A1846FEF7A3FB7B68CB
S315000050A0D86A7B6893F852301A460021FEF708FB4F
S315000050B07B68012283F84C2004E07B68DB6A184693
S315000050C0FEF774FB7B68DB6A1846FEF74FFC7B68CD
S315000050D0D86A7B6893F9323000221946FEF7E5FB61
S315000050E000BF0837BD4680BD80B584B000AF78608C
S315000050F07B68DB6A1846FEF7BDFC0346FB73FB7B49
S3150000510003F01303002B1FD07B68012283F84B208A
S31500005110FB7B03F00103002B04D07B68012283F89C
S3150000512053200DE0FB7B03F01003002B04D07B68BB
S31500005130102283F8532003E07B68022283F8532071
S315000051407868FFF7D7FA23E0FB7B03F00803002B10
S315000051500AD17B6893F84C30DBB2002B18D0FB7B6E
S3150000516003F00403002B13D07B68DB6A1846FEF7B6
S3150000517056FD7B6893F84930DBB2002B01D0022341
S3150000518000E00323BB73BB7B19467868FFF766F91B
S3150000519000BF1037BD4680BD80B584B000AFEFF3C9
S315000051A005837B607B68184644F06EFDFEF70EFAB9
S315000051B00346184605F008FF00233B60FEF706FA93
S315000051C003461A463B4619461046FEF719FA3B684F
S315000051D01B681B68FB60F868FFF788FEEFF3058322
S315000051E0BB60BB68184644F04DFD00BF1037BD4696
S315000051F080BD80B584B000AFEFF305837B607B682C
S31500005200184644F041FDFEF7E1F90346184605F05D
S31500005210DBFE00233B60FEF7D9F903461A463B4600
S3150000522019461046FEF7ECF93B681B681B68FB60E5
S31500005230F868FFF7A6FEEFF30583BB60BB68184668
S3150000524044F020FD00BF1037BD4680BD80B584B058
S3150000525000AFEFF305837B607B68184644F014FDCE
S3150000526000233B60FEF7B2F903461A463B46194651
S315000052701046FEF7C5F93B681B681B68FB60F868BB
S31500005280FFF7D0FEFEF7A2F90346184605F09CFE8E
S31500005290EFF30583BB60BB68184644F0F3FC00BF20
S315000052A01037BD4680BD80B584B000AFEFF30583EF
S315000052B07B607B68184644F0E7FC00233B60FEF702
S315000052C085F903461A463B4619461046FEF798F9F5
S315000052D03B681B681B68FB60F868FFF705FFFEF775
S315000052E075F90346184605F06FFEEFF30583BB60BC
S315000052F0BB68184644F0C6FC00BF1037BD4680BDEB
S3150000530090B583B000AF78607B68DB6B032B05D16B
S315000053107B68DB6A1846FEF755FC27E07B68DB6B8B
S31500005320022B05D17B68DB6A1846FEF78CFC1DE074
S315000053307B68DB6B012B19D17B6893F84A30DBB2B3
S31500005340002B09D07B68DB6A1846FEF74BFA7B68B0
S31500005350012283F84C2009E07B68DB6A1846FEF7D9
S315000053604FFC7B68DB6A1846FEF720FA7B68D96A31
S315000053707B685A6B7B681B6CD4180846FEF7F2F9FB
S31500005380034623707B68DB6B012B04D17B68DB6AE9
S315000053901846FEF726FC7B681B6C5A1C7B681A6451
S315000053A07B68DB6B5A1E7B68DA6300BF0C37BD4631
S315000053B090BD80B584B000AF78607B6893F84630C6
S315000053C0032B17D17B6893F84830022B12D17B68E8
S315000053D093F85030DBB283F00103DBB2002B09D027
S315000053E07B68DA6A7B6893F9323019461046FEF715
S315000053F090FC46E07B6893F84430FB737B6893F837
S315000054004630012B1ED97B6893F84830002B04D117
S315000054107B6893F84530FB7314E07B6893F848305B
S31500005420022B0BD17B6893F84630032B06D17B68A1
S3150000543093F8453043F00103FB7303E07B6893F870
S315000054404430FB737B6893F84730012B02D17868B0
S31500005450FFF7E8FB7B68DB6AFA7B11461846FEF726
S3150000546096F97B6893F848300133DAB27B6883F8A3
S3150000547048207B6893F84730013BDAB27B6883F8B3
S31500005480472000BF1037BD4680BDFFFF80B58AB0FC
S3150000549002AF786039600023BB613B681B789BB222
S315000054A07B8300237B7615233B7607F108030022D6
S315000054B01A605A609A60DA602B4BDB6807F10801C4
S315000054C007F1180210469847F861FB69002B01D0D6
S315000054D0FB6944E03B689A7B7B68303307F1180030
S315000054E000937B680121FFF7CBFCF861FB69002B79
S315000054F001D0FB6933E03B68DA7B7B68313307F127
S31500005500180000937B680321FFF7BAFCF861FB697A
S31500005510002B01D0FB6922E03B681A7C7B683233A2
S3150000552007F1180000937B680221FFF7A9FCF861D8
S31500005530FB69002B01D0FB6911E03B685A7C7B6854
S31500005540333307F1180000937B680021FFF798FCBE
S31500005550F861FB69002B01D0FB6900E0FB69184686
S315000055602037BD4680BD00BF58D70400B0B592B005
S3150000557000AF7860396000237B6400237B630023DF
S315000055803B633B681B789BB27B86002387F83130F0
S31500005590152387F8303007F1200300221A605A607D
S315000055A09A60DA60494BDB6807F1200107F13002A7
S315000055B01046984738643B6C002B01D03B6C80E06A
S315000055C03B689B699B68002B01D1012379E03B680E
S315000055D09B691B68002B01D1012372E03B689B6924
S315000055E05B68002B01D101236BE03B689B695B681C
S315000055F01B68002B01D1012363E07B6893F83030F0
S3150000560087F83F3097F93F3013F1210F01D101237D
S3150000561057E03B689B695B681B68BB632B4B1B6948
S3150000562007F1340207F130000121984738643B6CDA
S31500005630002B01D03B6C44E07B68DB6A1846FEF722
S315000056405CFB7864BA6BD3786FF38713D370BA6B4D
S315000056509378022161F383039370BA6BD3786FF367
S315000056608303D370BB6B7A6C5A60BA6B93786FF313
S3150000567045139370BA6BD3786FF30513D3703B68F9
S315000056809B695B6807F10C041D460FCD0FC42B68A0
S315000056902360FB8E3B820023BB7400237B613B6847
S315000056A09B699B681B683A689269126807F10C014E
S315000056B01046984738643B6C002B01D03B6C00E0E9
S315000056C0002318464837BD46B0BD00BF58D7040072
S315000056D0B0B592B000AF7860396000237B640023D8
S315000056E07B6300233B633B681B789BB27B8600236E
S315000056F087F83130152387F8303007F12003002270
S315000057001A605A609A60DA60494BDB6807F120013B
S3150000571007F130021046984738643B6C002B01D0E5
S315000057203B6C80E03B685B699B68002B01D10123E1
S3150000573079E03B685B691B68002B01D1012372E0AD
S315000057403B685B695B68002B01D101236BE03B681A
S315000057505B695B681B68002B01D1012363E07B68F2
S3150000576093F8313087F83F3097F93F3013F1210F26
S3150000577001D1012357E03B685B695B681B68BB632B
S315000057802B4B1B6907F1340207F1300003219847C0
S3150000579038643B6C002B01D03B6C44E07B68DB6AD1
S315000057A01846FEF79EFA7864BA6BD3786FF38713C0
S315000057B0D370BA6B93786FF383039370BB6B7A6C79
S315000057C09A60BA6BD378022161F38303D370BA6B04
S315000057D093786FF345139370BA6BD3786FF3051311
S315000057E0D3703B685B695B6807F10C041D460FCDFF
S315000057F00FC42B682360FB8E3B820023BB740023FF
S315000058007B613B685B699B681B683A6852691268F2
S3150000581007F10C011046984738643B6C002B01D009
S315000058203B6C00E03B6C18464837BD46B0BD00BF38
S3150000583058D7040080B588B000AFF8600B467A6090
S315000058407B8100233B61114B9B6907F110021146D6
