S01A00006C6561726E696E675F70726F6A6563745F312E73726563D4
S315000000004035FF1FCD640000355F0000C964000065
S31500000010C9640000C9640000C96400000000000053
S31500000020000000000000000000000000C96400009D
S31500000030C96400000000000041C60200F5C60200C7
S31500000040B90D00000941000059410000553F00006C
S31500000050553F0000553F0000B53500000D3100004A
S315000000607D340000E9320000B5360000ED360000B0
S3150000007025200000E91E0000AD1F0000051E00003F
S31500000080FFFFFFFFFFFFFFFFFFFFFFFFFFFFFFFF7A
S31500000090FFFFFFFFFFFFFFFFFFFFFFFFFFFFFFFF6A
S315000000A0FFFFFFFFFFFFFFFFFFFFFFFFFFFFFFFF5A
S315000000B0FFFFFFFFFFFFFFFFFFFFFFFFFFFFFFFF4A
S31500000400FFFFFFFFFFFDFFFFFCFFFFFFFFFFFFFFFB
S31500000410FCFFFFFFFFFFFFFFFCFFFF00FFFFFF00EA
S31500000420FCFF0F20FFFF0F20FCFF7F40FFFF7F40F8
S31500000430FCFF0D40FFFF0D40FFFFFFFFFFFFFFFF2B
S31500000440FFFFFFFFFFFFFFFFFFFFFFFFFFFFFFFFB6
S31500000450FFFFFFFFFFFFFFFFFFFFFFFFFFFFFFFFA6
S31500000460FFFFFFFFFFFFFFFFFFFFFFFFFFFFFFFF96
S31500000470FFFFFFFFFFFFFFFFFFFFFFFFFFFFFFFF86
S31500000480FFFFFFFFFFFFFFFFFFFFFFFFFFFFFFFF76
S31500000490FFFFFFFFFFFFFFFFFFFFFFFFFFFFFFFF66
S315000004A0FFFFFFFFFFFFFFFFFFFFFFFFFFFFFFFF56
S315000004B0FFFFFFFFFFFFFFFFFFFFFFFFFFFFFFFF46
S315000004C0FFFFFFFFFFFFFFFFFFFFFFFFFFFFFFFF36
S315000004D0FFFFFFFFFFFFFFFFFFFFFFFFFFFFFFFF26
S315000004E0FFFFFFFFFFFFFFFFFFFFFFFFFFFFFFFF16
S315000004F0FFFFFFFFFFFFFFFFFFFFFFFFFFFFFFFF06
S31500000500600CFE1FFD014400640CFE1FFA0143004F
S31500000510680CFE1FFB014308D80CFE1F0B0006509B
S31500000520DC0CFE1F0C000658E00CFE1F0A000648F5
S31500000530E40CFE1F70081500E80CFE1F6D08150878
S31500000540EC0CFE1F6F081510F00CFE1F6E08151838
S315000005506C0CFE1FFF014500700CFE1FFE014508D6
S31500000560740CFE1F77011408780CFE1F740114101A
S315000005707C0CFE1F76011420800CFE1F75011428CA
S3150000058020000000200001002F0000002F000100C5
S315000005900C000100110000003000000030000100D6
S315000005A024000000240001002400020024000300AF
S315000005B024000400240005001300000017000000BA
S315000005C023000000210000002100010007000000B8
S315000005D007000100070002000700030007000400EF
S315000005E007000500070006000700070012000000CC
S315000005F044000000080000000B000000410000005D
S31500000600400000004000010004000000430000001C
S315000006102B0000002B000A002B000B002B000C0007
S315000006202B000D002B0001002B0002002B00030005
S315000006302B0004002B0005002B0006002B000700F2
S315000006402B0008002B0009000600000006000A0027
S3150000065006000B0006000C0006000D0006000E004A
S3150000066006000F0006000100060002000600030057
S315000006700600040006000500060006000600070046
S31500000680060008000600090015000000150001001C
S3150000069015000200310000002A000000450000009D
S315000006A01000000003010000030000000300010029
S315000006B00F0000000D0000002D00000042000000A9
S315000006C02C0000002C0001002C0002002C0003006E
S315000006D0320000002800000018000000140000008E
S315000006E014000100140002001400030014000400AA
S315000006F0140005001400060014000700140008008A
S315000007001400090034000000340001001600000047
S31500000710160001003500000036000000360001001A
S315000007202200000033000000330100002900000011
S3150000073010B5054C237833B9044B13B10448AFF315
S3150000074000800123237010BDC003FE1F00000000BF
S31500000750F43D030008B5034B1BB103490348AFF34F
S31500000760008008BD00000000C403FE1FF43D030026
S315000007702DE9F0433A4AD0F83431146A1E689F686E
S3150000078083B000218046B0F83001A04702202BF04C
S3150000079013FC3B69304698470121B8F83001A04761
S315000007A002AD02202BF008FC2E4B45F8043D4FF01D
S315000007B00A09FC680023042229463046A04748B1AE
S315000007C0B9F10109F5D13B6930469847642003B079
S315000007D0BDE8F0834CF20403ADF804304FF00A098B
S315000007E0FC680023022229463046A04718B1B9F119
S315000007F00109F5D1E7E740F62243ADF804304FF0A2
S315000008000A09FC680023022229463046A04718B18F
S31500000810B9F10109F5D1D6E70B23ADF804304FF055
S315000008200A09FC680023022229463046A04718B16F
S31500000830B9F10109F5D1C6E7E0238DF804304FF090
S315000008400A09FC680023012229463046A04718B150
S31500000850B9F10109F5D1B6E7052388F81C30B6E7EA
S3150000086020EB0200007427042DE9F047D0F8382168
S31500000870D0F83431894691681D689E6882B08046FA
S3150000088010684A684FF0FF31904710B102B0BDE8DA
S31500000890F0870DF1080A63230AF8053D0323C9F81A
S315000008A0040089F808300A2401231A465146F768DD
S315000008B02846B84701220346514618B9B768284664
S315000008C0B84740B1013CEFD13369284698476420C8
S315000008D002B0BDE8F0879DF803305B0702D504231C
S315000008E089F808300A270422B46800230DEB0201B8
S315000008F02846A04710B1013FF5D1E5E79DF8043041
S315000009009DF806609DF805509DF80740B8F804105C
S31500000910B8F8062003F00F0306F00F0645EA032594
S3150000092044EA0624234B01FB05F102FB04F2A3FB78
S315000009300154A3FB025398F81C50D21A091B03EB6F
S31500000940520304EB51016A1E41F3CF2143F3CF2337
S31500000950012AA9F80410A9F806300FD999F8084019
S31500000960032D22460FD088F81C2099F80820042A67
S3150000097017D0A8F81810A8F81A3087E7032288F8C5
S315000009801C2099F80840032C2246ECD1D9F8042003
S31500000990D8F81840944214BF0222012289F8082090
S315000009A0E1E7B8F91820B8F91A30A9F80630A9F81D
S315000009B004206BE70101100018B1034B036000200F
S315000009C070470120704700BF08010501E0B1D9B1A9
S315000009D0D2B100680E4B984218D130B44888B2F9AB
S315000009E00650B2F904400B888988401B00FB00F2D0
S315000009F0181B00FB002001FB01F18842CCBF4FF41D
S31500000A009660002030BC7047012070470720704771
S31500000A104332495470B500F12006054600213046A0
S31500000A2029F05AFD50B9D5F83C3504465B6828468E
S31500000A309847304629F07AFD204670BD082070BDE3
S31500000A4038B10268044B9A4201D007207047FFF77D
S31500000A50E1BF0120704700BF433249542DE9F04FF2
S31500000A6089B0044607462BF019FD0022134647F8C5
S31500000A70102F164604F17802804604F154090392B9
S31500000A804FF0010ADFF820B163B9A2688DF814307F
S31500000A90936810689D6805AA0A233946A847236902
S31500000AA0002BF2D01E70A3F802A0227B5A700321FD
S31500000AB004AB009601224846049629F069FC049B83
S31500000AC0DB0748D4D4F83C3521691B682046984793
S31500000AD0002831D12369A188B3F9042091422EDB85
S31500000AE0E188B3F90620914229DB1B7A022B27D92C
S31500000AF02BF0D4FCB4F842358DF81460B42B804644
S31500000B00CDE90666216940D0B3F5877F35D05A2BEB
S31500000B1006D1E388B1F906208888C8809B1A8B80A5
S31500000B20A36818689B6800961D6905AA0023A84754
S31500000B300028B4D12061B2E765282FD023691E7240
S31500000B402BF0ACFCB4F840256423B3FBF2F343442A
S31500000B509842A4D9CCE74FF0FF330093012204ABAF
S31500000B600221484629F014FC002CABD023685B45D3
S31500000B70A8D12046FFF74EFFA4E7A388B1F90420C9
S31500000B80C88888809B1ACB80CAE7A288E3888D88AC
S31500000B90C888521B1B1A8A80CB80C1E7039829F0AC
S31500000BA011FF2369A1E700BF433249542DE9F04103
S31500000BB088B000287CD000297AD04F69002F77D0E2
S31500000BC03B68002B74D07A68002A71D0FD68002D2E
S31500000BD06ED004460E46C889B1F800E0B1F802C0EE
S31500000BE03989C4F83431B368A360C4F83821A4F84D
S31500000BF04005A4F83011C4F83C55A4F804E0A4F864
S31500000C0006C0337B2373338AA4F8423500254FF0A0
S31500000C10FF3304F120082946A36125774046342393
S31500000C20012229F0EDFB2946404629F055FC002813
S31500000C3045D1D4F834313A68996818680B68516818
S31500000C4098470546002834D1D4F83C3520465B68E1
S31500000C509847054668BBD4F8383179689A68496878
S31500000C60126818689047054618BB404629F05EFC96
S31500000C702422002104F1540029F026FBE8B9736808
S31500000C80039301214FF48062B826029304F59E7304
S31500000C90CDE900320490CDE905162346094A0A49F2
S31500000CA004F1780029F0D0FD38B9084B236000E044
S31500000CB00125284608B0BDE8F0816425F9E7082536
S31500000CC0F7E700BF5D0A000068EA020043324954B4
S31500000CD080B108B50268084B9A4201D0072008BDCA
S31500000CE000220221543029F075FB002814BF64202D
S31500000CF0002008BD012070474332495480B108B531
S31500000D000268084B9A4201D0072008BD0022012143
S31500000D10543029F05FFB002814BF6420002008BD72
S31500000D200120704743324954F8B500283DD0214B85
S31500000D3002689A423CD1D0F83821D0F83431916813
S31500000D409F681E6805461068CA689047044650B9F1
S31500000D507B68304698471228044603D17B683046A4
S31500000D60984704460CB12046F8BD05F17806304692
S31500000D7029F028FEAB6833B1296921B19A68186851
S31500000D80D3680222984705F1540029F0EBFA05F1E1
S31500000D90200029F08BFB304629F020FE304629F052
S31500000DA0FBFD00232B602046F8BD01242046F8BD3C
S31500000DB00724D8E74332495400B583B0EFF30580E2
S31500000DC02AF0C0F90E4B186870B1436A1A682E21D2
S31500000DD0C3F8C01093060ED4EFF30383A3F11000FB
S31500000DE040B2019305F024FAEFF3058003B05DF8F5
S31500000DF004EB2AF0A5B90121083029F087FCEBE7BE
S31500000E00DC03FE1F18B1034B03600020704701206E
S31500000E10704700BF08010301F0B583B000240194B8
S31500000E2048B141B13AB190F83E60012E074605D06F
S31500000E30072003B0F0BD012003B0F0BD16460D46F5
S31500000E400C601A4601A929F093F930B110281AD07E
S31500000E5004280CBF14206420EEE77B6B0199CA18A6
S31500000E60C8509060937A506043F080039372337851
S31500000E7001992960086023B1937A43F001039372C4
S31500000E80DAE71846D8E74FF4FA60D5E74369C2684F
S31500000E9004338B4210B4446B13D804F11000013AAA
S31500000EA000FB02328A420CD3C91AB1FBF0F300FBF5
S31500000EB01311002940F2D1705DF8044B08BF0020E1
S31500000EC0704740F2D1705DF8044B7047002849D056
S31500000ED090F83E30012B4FD0002943D00B68002BF1
S31500000EE040D070B5D1E9016202F11004A64282B089
S31500000EF03AD9032A3CD994073AD1CA68002A3FD086
S31500000F009A0704D0033626F0030623F003030C46A3
S31500000F1032460546002118462CF0D6FFA268034645
S31500000F2002F11000B6FBF0F0F0B12169C5E90D2021
S31500000F303020019000960C32284629F039F9E8B99C
S31500000F40E3682B631A68A88732B153F8042F01307F
S31500000F5080B2002AF9D1A8870123002085F83E3007
S31500000F6002B070BD0120704740F2D27002B070BD71
S31500000F7040F2D37002B070BD082070476420F5E7D8
S31500000F804FF4FB60F2E700BF58B32DE9F04190F84B
S31500000F903E60012E22D1828F016B07461AB30B6881
S31500000FA04BB3884659885D6879B1012400E0144640
S31500000FB055F8043B186829F03DFBD8F800305B88EB
S31500000FC0A34204F10102F2D8BA8FB24206F101013E
S31500000FD009D958F8043F73B10E46E3E70720BDE888
S31500000FE0F08101207047384629F04AF9002087F839
S31500000FF03E00BDE8F0814FF4FB60BDE8F08100BF24
S315000010002DE9F04782B000B30E46F1B190F83E806C
S31500001010B8F1010F054613D11746FFF737FF04460F
S3150000102078B96A6BB318EFF3108588F3108893F9D3
S315000010300A1000290EDB85F3108840F2D97400E00F
S315000010400724204602B0BDE8F0870124204602B0FE
S31500001050BDE8F0877807D3F8048003D5997A41F084
S3150000106002019972F9072AD5B758002F3DD093F897
S315000010700A904FF0010AC9F34009997A002262F3F7
S31500001080000199721A81002131609A7A02F0FD02FC
S3150000109061F3C71230469A7229F008F940BB85F30E
S315000010A01088BAF1000FCCD0B9F1000F1AD0012385
S315000010B08DF80030CDF804806846B847C1E7198935
S315000010C031B1013989B2198111B185F31088B8E7B8
S315000010D0B7589A7A77B14FF0010AC2F34009D2079E
S315000010E0DDD4D0E78DF80090E4E7B946BA46C4E708
S315000010F06424A6E7B946BA46F1E700BF2DE9F04FEA
S3150000110087B0002858D00C46002955D090F83E608C
S31500001110012E05464BD100939046FFF7B7FE0646D3
S31500001120002845D12F6BB8F1000F62D0D8F80430F3
S315000011300293D8F80830039398F800300193AA8FE9
S31500001140002A53D03B68002B50D002F1FF381FFA1B
S3150000115088F807EB880894F800B03A464FF0000A82
S3150000116004E090452DD052F8043F53B31978594501
S31500001170F7D1B3F80290D3F804C009F101090023AE
S3150000118001334B45EDD05CF8040B617890F804E030
S315000011908E45F5D84079884228BF0AF1010A03F145
S315000011A0010328BF1FFA8AFA4B45ECD1D9E7072677
S315000011B0304607B0BDE8F08F0126304607B0BDE8DF
S315000011C0F08FBAF1000F11D06B6B04EB030BEFF34A
S315000011D010814FF0010888F310889BF90A20002A35
S315000011E00BDB81F3108840F2D976E1E740F2D57641
S315000011F0DEE7CDE902000190A1E7029AABF808A06C
S31500001200E250039BCBF8043081F31088A88F0028A6
S31500001210CED0A246029506E0804507F1040708F104
S315000012200102C5D290463A689AF8004011788C427D
S31500001230F2D1556850880022824202F1010931D26A
S3150000124055F8044B9AF8013022799A4202D862790D
S315000012509A4201D24A46EFE7019B2068109ACDF8E0
S3150000126014A0012B05A924D029F030FAE8B10B28E7
S3150000127040F2D7730CBF1E466426EFF3108301229B
S3150000128082F31088BBF80820013AABF8082083F3F4
S315000012901088009B4BB13A6823685088009A136007
S315000012A04A46C9E7029B988FB6E73B684A46588884
S315000012B0C2E729F0CBF9D9E738B131B12AB190F8B4
S315000012C03E00012803D0072070470120704710B563
S315000012D014460846002121601A46214629F0D6F90F
S315000012E028B10A2804D0042814BF1420642010BD95
S315000012F040F2D67010BD00BF20B1034B1B680360DF
S315000013000020704701207047C4EA0200A8B1036AB2
S315000013109BB19A688AB110B50B4904688C420ED10C
S31500001320926972B10446186890472046002440F836
S31500001330044B29F051FA204610BD012070470720C2
S3150000134010BD062010BD00BF4E45504F28B10068A5
S3150000135018B1044B02689A4200D07047043001214C
S3150000136029F0D4B94E45504FF0B587B000283DD08E
S3150000137000293BD00B689A68002A37D01268002AE9
S3150000138034D05A68002A31D0214A0468944231D0B8
S31500001390071D0022036205460C46384611461C23EB
S315000013A029F0C8F940BBD4F800E094F804C0DEF890
S315000013B0046030687168B268F36801AC0FC43069C4
S315000013C02060BCF1000F19D0124A04950123039244
S315000013D085F82430DEF808302A6A1B68106801A9EF
S315000013E09847044678B90A4B2B6000E00124204652
S315000013F007B0F0BD0824FAE76424F8E7CDE903CC8A
S3150000140085F824C0E6E7384629F0E6F9EFE700BF9D
S315000014104E45504F4D13000080B108B50268094B88
S315000014209A4201D0072008BD043029F0EBF90D28B7
S3150000143006D0002814BF6520002008BD0120704793
S31500001440142008BD4E45504F20B1034B1B68036066
S315000014500020704701207047CCEA02002DE9F04FCA
S3150000146000F1380983B0044648468B4692469846B2
S315000014709DF8307004F008FF00287FD1A569AB788D
S31500001480064666F3861394F91E00AB70AB7866F3D6
S31500001490C713AB70AB78012266F38203AB7084F896
S315000014A035206B7BC4F8308007EA020166F304132B
S315000014B084F83610C4E90A66C4E908BA84F83770B5
S315000014C06B73019204F0B4FE94F91D0004F0B0FEB3
S315000014D094F91C0004F0ACFE94F91F0004F0A8FE79
S315000014E0B8F5803F019A41D2A368002B4BD0A26980
S315000014F099681868022F02F1030A04BF3D4A226266
S3150000150094F834200CBFB3464FF0020B5A4566D010
S31500001510CB689847002860D1A1684B681B68DA78C9
S315000015206BF38302DA708868226A5A601FFA88F2BF
S31500001530DA818268C3F808A00868904784F834B056
S3150000154000284AD1E36803BB012FA3682AD1AA78F1
S3150000155042F08002AA70AA7842F02002AA70002BFC
S3150000156037D06B79304603B0BDE8F08F1646484653
S3150000157004F09AFE304603B0BDE8F08F0A263046E6
S3150000158003B0BDE8F08FE368CBB1012F2FD09A6886
S31500001590A16918685768626A1FFA88F30531B84767
S315000015A0D8B9A368AA7842F04002AA70AA7842F095
S315000015B08002AA70AA7842F03002AA70CFE7012F03
S315000015C0F0D1AB7843F08003AB70AB7843F02003E7
S315000015D0AB70E368002BC4D1CCE70646C7E7D1F869
S315000015E004B0216A52461FFA88F3D847A8E7A368D1
S315000015F0ADE700BFC8EA0200F0B49DF8104008B19C
S31500001600012C02D00120F0BC7047002BFAD0002933
S31500001610F8D0002AF6D04568044CA54201D0072030
S31500001620F1E703240494F0BCFFF718BF5349435372
S3150000163008B1012B01D001207047002AFBD030B53C
S3150000164083B031B14568074CA54204D0072003B0EA
S3150000165030BD1846FBE71C46009413460022FFF7F0
S31500001660FDFEF4E75349435308B1012B01D0012095
S315000016707047002AFBD00029F9D010B5074B446803
S315000016809C4282B002D0072002B010BD13460A4623
S31500001690022100910021FFF7E1FEF5E7534943538C
S315000016A0002800F08380424B42689A427CD18369CD
S315000016B09A78002161F3861230B590F91D40416099
S315000016C09A709A7861F3C7129A709A788C4261F38D
S315000016D0820283B09A700DDB6309203301223549FB
S315000016E004F01F0402FA04F441F82340BFF34F8FBD
S315000016F0BFF36F8F90F91C30002B0DDB5A09203297
S3150000170001212C4C03F01F0301FA03F344F82230A5
S31500001710BFF34F8FBFF36F8F90F91F30002B0DDB98
S315000017205A0920320121234C03F01F0301FA03F367
S3150000173044F82230BFF34F8FBFF36F8F90F91E30FE
S31500001740002B0DDB5A09203201211A4C03F01F032E
S3150000175001FA03F344F82230BFF34F8FBFF36F8FC4
S3150000176002AC00221423ADF8042004F8043D05461B
S315000017700378ADF80630204604F01CFDEB681BB17B
S315000017809A681868D3699847AB681BB19A68186855
S31500001790D369984705F1380004F086FD204604F029
S315000017A0BBFD002003B030BD072070470120704705
S315000017B05349435300E100E02DE9F04F91B0002971
S315000017C000F0B081002800F0AD810B78DFF8B4930B
S315000017D0ADF812304FF0140A0023CDE90010ADF831
S315000017E01030D9F80C208DF810A0CDE90733CDE9DB
S315000017F0093307A904A89047064618B1304611B028
S31500001800BDE8F08F04A804F053FD0646002840F01A
S315000018108E81019D01463C220DF1400828462CF0A0
S3150000182053FB009C079FAF6148F8146D2378ADF811
S315000018301860ADF81A308DF818A0D9F8109094F801
S3150000184001A0424606A80221C8479DF92C302B77F5
S315000018500646002840F077814FEA0A1A002B5FFA05
S315000018608AFAC0F2748103F1604202F5614282F89D
S3150000187000A3BF4A019CD2F800A05AF833200023E7
S3150000188014600B93009B4246052106A893F802B00C
S31500001890C8479DF92C3063770646002840F05381EF
S315000018A04FEA0B1B002B5FFA8BFBC0F26A8203F137
S315000018B0604202F5614282F800B35AF83320019C77
S315000018C0146000230B93009B4246042106A893F85C
S315000018D003B0C8479DF92C30A3770646002840F090
S315000018E032814FEA0B12002BD2B2C0F2748203F19E
S315000018F0604101F5614181F800235AF83320019CCB
S31500001900146000230B93009B4246012106A893F81E
S3150000191004B0C8479DF92C30E3770646002840F00E
S3150000192012814FEA0B12002BD2B2C0F25C8203F195
S31500001930604101F5614181F800235AF83330019C7A
S315000019401C60009B04A893F800A004F037FC002359
S31500001950FF22F2213B704FF47840BB703B71B971A6
S315000019607A704021BA740322FB713B727B72BB72A0
S31500001970FB723B737B733B73B8827B83F9743A7754
S31500001980BA7894F91D0063F38612BA70BA7863F3D5
S31500001990C712BA70BA7863F38202BA7004F048FCD0
S315000019A094F91C0004F044FC94F91F0004F040FC78
S315000019B094F91E0004F03CFC94F91D00002808DB95
S315000019C04309603300F01F0601226A49B24041F81C
S315000019D02320019B93F91C10002909DB4B09603376
S315000019E001F01F0C0122634E02FA0CF246F8232086
S315000019F0019B93F91F20002A0ADB5309603302F08A
S31500001A001F0E0126DFF86CC106FA0EF64CF82360AD
S31500001A10019B93F91E30002B0BDB5E09603603F049
S31500001A201F0B4FF0010CDFF84CE10CFA0BFC4EF8E3
S31500001A3026C0002809DB00F01F0E01264009DFF84A
S31500001A4034C106FA0EF64CF82060002908DB01F0D6
S31500001A501F0C01204909474E00FA0CF046F82100F8
S31500001A60002A07DB02F01F06012152094148B14056
S31500001A7040F82210002B07DB03F01F0001225B0950
S31500001A803C49824041F82320BB8A6FF30003BB82A6
S31500001A90BB79009A6FF30003126ABB717B7A6FF30E
S31500001AA000037B723B7843F080033B707B7B6FF3D4
S31500001AB000037B73002A51D01378002B4ED0FB799C
S31500001AC043F00403FB71009C002306A88DF80F3039
S31500001AD00B938DF81830D4F80CB004F007FA264BA7
S31500001AE09DF818009B6941469847064600283AD15A
S31500001AF0BBF1000F37D00B992048019D04233246D5
S31500001B000BFB03F3B1FBF3F303F1FF3CBCF1FE0F58
S31500001B1040F24C810132042A02EB420334D030F801
S31500001B201330EDE70126304611B0BDE8F08F0A26E6
S31500001B30304611B0BDE8F08F0126009B5B699A68BC
S31500001B401868D369984704A804F0E6FB56E60C4AE1
S31500001B5003F00F010A4482F818A08AE6FB796FF3B6
S31500001B608203FB71AFE704A804F0D6FB012645E625
S31500001B708CF1020000E100E078EC0200E8EA0200E5
S31500001B80FCEC00E010EC0200CDE90045FB795B07B8
S31500001B90E9D54FF480730120002205929DF80F20AD
S31500001BA0DFF85CC202EB420E4FEA0B223CF81EC085
S31500001BB002FB0CF203FB02F3B3FBF1F10591059B6B
S31500001BC07F2B05D9059BFF2B02D8059BDBB2BB7487
S31500001BD00028C8D1009A51691369081CB3FA83F228
S31500001BE04FEA521218BF0120904200F0DD80002912
S31500001BF04BD08B68002B00F0C2800B68002B00F0E6
S31500001C00BE804B68002B00F0BA801A681546002A81
S31500001C1000F0B5809C4692F802E092F803B0BCE86A
S31500001C200F00022464F3830E6FF3451E0BF0330B93
S31500001C3085F802E06FF3051BC64685F803B0AEE8EB
S31500001C400F004FF0000BDCF80030CEF80030022118
S31500001C50CDF818B006AA04A8C8479DF91830213354
S31500001C6000F08D80009CBDF81A1063699A681868A8
S31500001C7012688DF832B0ADF83010CDF834B0414668
S31500001C809047002840F0AD802369002B4BD09A681E
S31500001C90002A3FF451AF1A68002A3FF44DAF5B6843
S31500001CA0002B3FF449AF1D68002D3FF445AF95F872
S31500001CB003E095F802B09C460EF03F0E022363F354
S31500001CC0830EBCE80F006FF3051E0BF0F30B85F8CF
S31500001CD003E06FF3451BC64685F802B0AEE80F0079
S31500001CE04FF0000BDCF80030CEF8003006AACDF835
S31500001CF018B0052104A8C8479DF9183021333FF4D0
S31500001D001BAF009CBDF81AC023699A681868126850
S31500001D108DF832B0CDF834B04146ADF830C09047BA
S31500001D20002866D1236900994A798879C979012AF8
S31500001D30BA782DD06FF30102BA70002201282ED096
S31500001D40012914BF42F0800242F0C0020099497A8C
S31500001D507A7319B9BA7942F00802BA71009C019DEA
S31500001D60254AD4E9061085F800A064692961022194
S31500001D70EC606861AB6085F834106A603EE5012668
S31500001D80E1E61E4A03F00F010A4482F818B094E512
S31500001D904FF0020C6CF30102BA700522CEE700295F
S31500001DA0D4D142F04002D1E70326CCE6D2B28DF878
S31500001DB00F205FFA8CFC9DF80F0087F801C03A7877
S31500001DC0CDE9004560F301023A70FA7952077FF5D2
S31500001DD001AF0020E0E6094903F00F0001440A764E
S31500001DE08BE50646AFE6054903F00F0001440A7687
S31500001DF0A3E50646A1E600BF53494353FCEC00E0C9
S31500001E00E8EA020030B583B0EFF3058029F09AF9CD
S31500001E10EFF30383A3F1100464B22046019304F0A8
S31500001E2007FA2F4B1B6853F834301C68E368CBB1B4
S31500001E30A369226BA2629A7894F91D006FF3C71208
S31500001E409A7004F0F5F994F91D30002B2BDA94F80A
S31500001E503730012B35D0EFF3058003B0BDE83040B5
S31500001E6029F06EB9A268A369002AE2D1597BA26A59
S31500001E70490732D494F83710012903D099786FF3C3
S31500001E80C7119970206B90420AD994F83610F1B1B7
S31500001E90216A8D5C1979C909FCD0DD700132A26214
S31500001EA09042D8D1C7E75A09603203F01F030121D7
S31500001EB00C4801FA03F340F8223094F83730012B2E
S31500001EC0C9D1A269937843F004039370C3E71979E3
S31500001ED0C909FCD0FF21D970E0E7002AD2D0C9E7B2
S31500001EE08CF1020000E100E070B584B0EFF30580EC
S31500001EF029F028F9EFF30383A3F1100464B2204616
S31500001F00019304F095F9284B1B6853F834301C688C
S31500001F10E3681BB3A369226BE2629A7821696FF3C7
S31500001F2086129A709A786FF3C7129A709A7802F0AE
S31500001F30CF029A7041B122786369019201228DF82D
S31500001F400820039301A8884704F1380004F0ACF98F
S31500001F50EFF3058029F0F4F804B070BDA268A36918
S31500001F60002AD8D1616AE26A5B798B54D4E90A13F4
S31500001F70256B0133A942E36211D294F83600A269B7
S31500001F8030B1206A465C1079C009FCD0D67004E0F6
S31500001F901079C009FCD0FF20D0700131A162AB429C
S31500001FA0D6D1A369B9E700BF8CF1020030B585B080
S31500001FB0EFF3058029F0C6F8EFF30384184B01947C
S31500001FC0103C64B21B6853F834301D68AB6929694C
S31500001FD09A786FF386129A709A786FF3C7129A708E
S31500001FE09A786FF382029A709A7802F0CF029A700A
S31500001FF041B12A786B69019201228DF8082003937A
S3150000200001A8884705F1380004F04EF9204604F08F
S315000020100FF9EFF3058029F093F805B030BD00BF46
S315000020208CF1020030B585B0EFF3058029F08AF80F
S31500002030EFF303831C4A0193103B5BB2126852F81C
S3150000204033301C682369A56963B1227801922A7925
S3150000205092064CBF062202228DF80820626903927E
S3150000206001A8984704F1380004F01EF92B7903F013
S31500002070C7032B71EFF30383A3F1100040B2009363
S3150000208004F0D6F8EFF30382A2F110035BB207491E
S315000020900092C03351F823300093009BEFF3058084
S315000020A029F04EF805B030BD8CF10200006000400A
S315000020B020B1034B1B680360002070470120704766
S315000020C01CEB0200C26A82B0137843F0200313703F
S315000020D01378C3F340138DF807301378C3F3401316
S315000020E08DF807301378C3F340138DF807309DF849
S315000020F0073013789806FCD4013911F0FF01E3D1BB
S315000021001378DB0707D4137861F30413137013787D
S3150000211043F00403137002B0704700BFF0B583B0FC
S3150000212002AC002544F8045D104D089E2F69154643
S3150000213022461C46B8479DF90430337070B92D010C
S31500002140002BEDB20CDB03F1604202F5614282F82E
S315000021500053074A126852F833301C6003B0F0BDD2
S31500002160044A03F00F010A441576F2E710EC020068
S315000021708CF10200FCEC00E02DE9F041C8B1114BF6
S31500002180846A9C4203D007252846BDE8F08100F109
S3150000219051080446404616460F4604F075F80546B3
S315000021A058B940462781A67204F07EF82846BDE855
S315000021B0F08101252846BDE8F0810A252846BDE8BC
S315000021C0F08100BF43494952C36A90F93310DA7966
S315000021D0002942F01F0230B4DA7107DB01F01F0557
S315000021E0012249091E4CAA4044F82120DA7990F9C7
S315000021F0301042F020020029DA7107DB01F01F05DA
S3150000220001224909164CAA4044F82120DA7990F9AE
S31500002210321002F0BF020029DA710EDB4B092033BF
S3150000222001220F4C01F01F0102FA01F144F82310BC
S31500002230BFF34F8FBFF36F8FC36AD97990F93120FF
S3150000224041F08001002AD97107DB02F01F0001234B
S3150000225052090349834041F8223030BC704700BF21
S3150000226000E100E02DE9F04F99B000284AD000299E
S3150000227048D0284F4B68BB4244D84B6A002B41D00C
S315000022800B78DFF89480ADF8223015220023D8F8B9
S315000022900C60ADF8203005460C46CDE90B33CDE990
S315000022A00D330BA98DF8202008A80296B0470646E4
S315000022B048BB6368BB4203D1BDF832305B0726D505
S315000022C008A803F0F5FF0646E8B9626A0B9B127888
S315000022D085F85220EB622278ADF83C001523139066
S315000022E0CDE9140016908DF83C30ADF83E2013A9C8
S315000022F00FA8029B9847B146064678B108A804F095
S315000023000BF800E00126304619B0BDE8F08F032631
S31500002310F9E700BF40420F0010EC020005F1300360
S31500002320A27B009301212B460FA8FFF7F7FE064676
S315000023300028E3D105F13103E27B009303212B460C
S315000023400FA8FFF7EBFE06460028D7D105F13203AA
S31500002350227C009302212B460FA8FFF7DFFE0646DC
S315000023600028CBD105F13303627C009301462B464E
S315000023700FA8FFF7D3FE06460028BFD1A646BEE843
S315000023800F00AC46ACE80F00BEE80F00ACE80F004B
S315000023909EE803008CE8030008A803F00FFFEB6A31
S315000023A095F933001A7866F3C7121A701A78C2F3D1
S315000023B0C0128DF81D201A78C2F3C0128DF81D20A8
S315000023C01A78C2F3C0128DF81D209DF81D201A78C8
S315000023D042F040021A701A78C2F380128DF81E205D
S315000023E01A78C2F380128DF81E201A78C2F3801272
S315000023F08DF81E209DF81E2083F8099003F018FF23
S3150000240095F93330002B09DB5A09603203F01F03BC
S315000024100121A04801FA03F340F8223095F9300073
S3150000242003F006FF95F93030002B09DB5A096032BC
S3150000243003F01F030121974801FA03F340F8223005
S3150000244095F9320003F0F4FE95F93230002B09DBE2
S315000024505A09603203F01F0301218E4801FA03F383
S3150000246040F8223095F9310003F0E2FE95F931305B
S31500002470002B09DB5A09603203F01F03012185484E
S3150000248001FA03F340F82230EB6A83491A788E6921
S31500002490039642F080021A701A78C2F3C0128DF8C1
S315000024A01F201A78C2F3C0128DF81F201B78002255
S315000024B0C3F3C0138DF81F300F920FA901209DF8AA
S315000024C01F30B0470646002840F071810F9AD5F8B4
S315000024D004B0CDF810806423A2FB032381464FF09D
S315000024E0010A1746984652460023384641462AF0C6
S315000024F0BDFB5A4600232AF0B9FB633041F10001C7
S31500002500642200232AF0B2FB40285FFA89F140F2E8
S31500002510528109F10109B9F1080F4FEA4A0AE2D1DD
S31500002520DDF81080E96A5D4B9B4503D14B7943F09A
S3150000253080034B71CB7895F8522043F00203CB70A1
S31500002540A2F10102CB78B2FA82F2520962F30003D9
S31500002550CB704B7943F001034B714B7943F0020387
S315000025604B714B7943F004034B714B796FF3C30303
S315000025704B714B7943F010034B712846FFF724FE4D
S31500002580EB6AA1691A786FF386121A701A78C2F389
S3150000259080128DF81C201A78C2F380128DF81C2048
S315000025A01B78C3F380138DF81C309DF81C3000296E
S315000025B076D000232178ADF8283015220993CDE98D
S315000025C00F33CDE91133ADF82A108DF828200AA86B
S315000025D00FA9029B98478446002840F03181A369E1
S315000025E09A68002A00F032811A68002A00F02E81CB
S315000025F05B68002B00F02A81D3F80090B9F1000F38
S3150000260000F0248195F93030213300F01F810AA8AB
S31500002610D8F8103009AA012198478446002840F0CE
S315000026200F8199F8033099F80210EA6ABDF826E09E
S3150000263060F3871302206CF3830360F383016CF36A
S3150000264005136CF34511133289F8033089F802102B
S31500002650C9F80420D4F818B0DBF804A0BAE80F00D3
S315000026600DF14C09A9E80F00DBF80830DAF8002074
S315000026701B688DF852C0CDF854C0DBF80000C9F8CD
S315000026800020ADF850E013A998478446002840F092
S31500002690D78005E000E100E078EC020040420F0040
S315000026A06369002B6AD000232078ADF82830152204
S315000026B00993CDE90F33CDE91133ADF82A000FA9FF
S315000026C08DF828200AA8029B98470746002867D15C
S315000026D063699A68002A00F0B5801A68002A00F03B
S315000026E0B1805B68002B00F0AD80D3F80090B9F1A3
S315000026F0000F00F0A78095F93130213300F0A28059
S31500002700D8F810300AA809AA0321984707460028D6
S3150000271046D199F8033099F80210EA6ABDF826C046
S3150000272060F38713022060F3830367F3830167F383
S315000027300513123267F3451189F8033089F8021040
S31500002740C9F80820D4F81490D9F80480B8E80F0026
S315000027500DF14C0EAEE80F00D9F80830D8F800207D
S315000027601B68D9F80000CEF800208DF85270159736
S3150000277013A9ADF850C0984700286ED10023384AF7
S3150000278085F851306B6385F84930AB6385F84A307C
S31500002790EB6385F84B302B6485F84C30AA62B2E5C2
S315000027A03E46A3691BB19A681868D369984708A87A
S315000027B003F000FDA2E5C0F34702831ADBB2062B45
S315000027C0DDF810800AD92748834541D000290CBF7F
S315000027D0FC21FD210A440B44D2B2DBB20021B5F83C
S315000027E00CB01391CDE9042313A9039B012098474C
S315000027F013991D48B1FBFAF1DDE90423B0FBF1F0B2
S31500002800BBFBF0F0BBF1000F00D00130E96AD5F850
S3150000281004B043F0E00342F0E0020A744B748B7894
S3150000282069F306138B700B796FF301030B714B7908
S3150000283043F020034B71CB7860F30613CB7072E63E
S315000028406646B4E7A3690126002BACD10126AEE7A4
S31500002850063A063BD2B2DBB2C0E70646A1E700BFA6
S3150000286043494952801A060000CA9A3B10B582B005
S3150000287000237C210122019104468DF8032080F873
S315000028804B3080F84D3080F84E3080F84F3080F86D
S31500002890503090F84C2094F84610806BE06384F832
S315000028A0471084F848302364002A5ED1019B6BB13F
S315000028B0E26A5378DB0903D108E05378DB0905D0D7
S315000028C0019B013B0193019B002BF6D1019B002B41
S315000028D000F08680E36A94F9330000225A7203F00E
S315000028E0A7FC94F93330002B09DB5A09603203F058
S315000028F01F0301213F4801FA03F340F8223094F9FF
S31500002900300003F095FC94F93030002B09DB5A09AE
S31500002910603203F01F030121364801FA03F340F841
S31500002920223094F9320003F083FC94F93230002B04
S3150000293009DB5A09603203F01F0301212D4801FA11
S3150000294003F340F8223094F9310003F071FC94F956
S315000029503130002B09DB5A09603203F01F030121D5
S31500002960244801FA03F340F82230E36A94F852103F
S31500002970DA7842F00202DA70A1F10101DA78B1FAEE
S3150000298081F1490961F30002DA705A7942F00102D5
S315000029905A712046FFF718FC94F84C30D3B1002347
S315000029A084F84C30E3693BB1002002B010BD94F8C6
S315000029B0513003F0FF02D3B19DF8033003F0FF025C
S315000029C0002BF4D194F84B30002BEDD084F84B203B
S315000029D01220EAE7E26A537843F002035370E1E714
S315000029E004F1510003F060FC082002B010BD8DF820
S315000029F00320E1E700E100E060B159B152B12DE9F1
S31500002A00F041274C856AA54282B005D0072002B066
S31500002A10BDE8F0810120704700F1510804464046A8
S31500002A201F4616460D4603F02FFC88BBA3694BB123
S31500002A309A686946CDE90000926918689047009B3C
S31500002A40B34227D9A27A84F84A700123012A84F86E
S31500002A504930C4E90D5623890FD0DA0902F00E0277
S31500002A6062F00F02032184F8443084F8452084F88C
S31500002A7046102046FFF7FAFEC9E75B0043F0010364
S31500002A80002184F8443084F8462084F84510F0E7A5
S31500002A900A20BCE7404603F007FC1720B7E700BF53
S31500002AA04349495258B151B12DE9F041274C856A45
S31500002AB0A54282B005D0072002B0BDE8F081012012
S31500002AC0704700F15108044640461F4616460D461B
S31500002AD003F0DAFB50BB63694BB19A686946CDE9EE
S31500002AE00000926918689047009BB34228D9A17AE2
S31500002AF0238984F84A7000200129C4E90D56E6634B
S31500002B00DAB284F8490013D0DB0923F0010363F03D
S31500002B100F03022184F8453084F8442084F84610D7
S31500002B202046FFF7A3FE02B0BDE8F0810A20C3E706
S31500002B30520084F8442084F8450084F84610EFE7F4
S31500002B40404603F0B1FB1720B6E700BF43494952A0
S31500002B5030B5C26985B0044682B1D0E90E35006A47
S31500002B608DF80C105B1B94F853108DF80D10CDE901
S31500002B70010301A89047002384F84B3094F93330C1
S31500002B80E26A00218B42D1710DDB5A092032012104
S31500002B90234803F01F0301FA03F340F82230BFF382
S31500002BA04F8FBFF36F8F94F93030002B0DDB5A092E
S31500002BB0203201211A4803F01F0301FA03F340F8FB
S31500002BC02230BFF34F8FBFF36F8F94F93230002B53
S31500002BD00DDB5A0920320121114803F01F0301FAC7
S31500002BE003F340F82230BFF34F8FBFF36F8F94F992
S31500002BF03130002B0DDB5A0920320121084803F041
S31500002C001F0301FA03F340F82230BFF34F8FBFF3DF
S31500002C106F8F04F1510003F047FB05B030BD00BFD4
S31500002C2000E100E030B5456985B00446A5B190F8ED
S31500002C30493003F0FF027BB9AB6828689B698DF8C1
S31500002C400E2002A998479DF80E302BB1AB68286874
S31500002C505B6998470123E363A569002D00F0948121
S31500002C6094F84930002B00F08F81AB6828689B6987
S31500002C7000228DF80E2002A998479DF80E30002BF1
S31500002C8000F08281AB6828685B6998470123E3639B
S31500002C9094F93330E26A00218B42D17180F22481AB
S31500002CA094F93030002B80F20B8194F93230002BEE
S31500002CB080F2F28094F93130002B80F25181E36A80
S31500002CC05A78500641D5997811F0070140F06C8189
S31500002CD05A7894F8521042F008025A705A78D2B2D2
S31500002CE08DF808205A78D2B28DF808205A78D2B2D8
S31500002CF08DF808209DF80820DA7842F00202DA7092
S31500002D00A1F10101DA78B1FA81F1490961F3000212
S31500002D10DA705A79002142F001025A718DF80710D3
S31500002D205A7811070CD507E05A7AC2F300028DF8DB
S31500002D3007205A78120703D59DF80720002AF3D0FA
S31500002D409DF80720002A40F035811A7894F933005F
S31500002D506FF3C7121A701A78C2F3C0128DF80320E7
S31500002D601A78C2F3C0128DF803201A78C2F3C01283
S31500002D708DF803209DF803201A7842F040021A705D
S31500002D801A78C2F380128DF804201A78C2F38012E2
S31500002D908DF804201A78C2F380128DF804200022E0
S31500002DA09DF804105A7203F043FA94F93330002B5D
S31500002DB080F2C28094F9300003F03AFA94F9303088
S31500002DC0002B80F2A58094F9320003F031FA94F9D1
S31500002DD03230002B4DDA94F9310003F029FA94F9D8
S31500002DE03130002B09DB5A09603203F01F03012141
S31500002DF0734801FA03F340F82230E36A1A7842F086
S31500002E0080021A701A78C2F3C0128DF805201A785B
S31500002E10C2F3C0128DF805201A78C2F3C0128DF8DD
S31500002E2005209DF805201A786FF386121A701A7815
S31500002E30C2F380128DF806201A78C2F380128DF83C
S31500002E4006201B78C3F380138DF806302046012137
S31500002E509DF80630FFF77CFE94F84610A26B84F8C6
S31500002E60481000231220E36384F84C30226405B036
S31500002E7030BD5A0960320121514803F01F0301FA9F
S31500002E8003F340F8223094F9310003F0D1F994F9B4
S31500002E903130002BA7DAB0E75A0920320121484821
S31500002EA003F01F0301FA03F340F82230BFF34F8FFC
S31500002EB0BFF36F8F94F93130002BFFF600AF4FE070
S31500002EC05A09203201213E4803F01F0301FA03F399
S31500002ED040F82230BFF34F8FBFF36F8F94F9323033
S31500002EE0002BFFF6E7AED7E75A0920320121344816
S31500002EF003F01F0301FA03F340F82230BFF34F8FAC
S31500002F00BFF36F8F94F93030002BFFF6CEAED7E7C4
S31500002F105A09603201212A4803F01F0301FA03F31C
S31500002F2040F8223094F9320003F082F994F93230F5
S31500002F30002BFFF650AF9CE75A096032012120486A
S31500002F4003F01F0301FA03F340F8223094F930002E
S31500002F5003F06EF994F93030002BFFF634AFD7E763
S31500002F605A0920320121164803F01F0301FA03F320
S31500002F7040F82230BFF34F8FBFF36F8FE36A5A7862
S31500002F8050067FF5E2AE9EE6E06B00287FF480AE49
S31500002F9094F84C30002B7FF47BAE94F84B30002B2A
S31500002FA07FF476AE05B030BD01312046FFF78AF8D2
S31500002FB0E36A8DE609212046FFF784F8E36AC4E652
S31500002FC000E100E038B1826A044B9A4201D0072042
S31500002FD07047FFF727BE0120704700BF434949529B
S31500002FE030B583B0002850D0464B826A9A420446D8
S31500002FF003D00725284603B030BDFFF713FEA369AB
S3150000300000220546A2621BB19A681868D3699847E0
S3150000301063691BB19A681868D369984794F9333085
S31500003020E26A00218B42D17159DA94F93030002BD3
S3150000303042DA94F93230002B2BDA94F93130002B36
S315000030400DDB5A09203201212F4803F01F0301FA34
S3150000305003F340F82230BFF34F8FBFF36F8F14F89E
S31500003060513BADF806300022152301A8ADF8042027
S315000030708DF8043003F09EF801A803F04DF92046C0
S3150000308003F012F9284603B030BD0125284603B0E7
S3150000309030BD5A09203201211B4803F01F0301FAF3
S315000030A003F340F82230BFF34F8FBFF36F8F94F9CD
S315000030B03130002BC5DAD2E75A09203201211248F5
S315000030C003F01F0301FA03F340F82230BFF34F8FDA
S315000030D0BFF36F8F94F93230002BAEDBD9E75A0974
S315000030E020320121084803F01F0301FA03F340F8D8
S315000030F02230BFF34F8FBFF36F8F94F93030002B20
S3150000310097DBD9E74349495200E100E030B583B087
S31500003110EFF3058028F016F8EFF30383A3F1100010
S3150000312040B2019303F084F8EFF303836D4A0193F1
S31500003130103B5BB2126852F833301C6894F84D307D
S31500003140002B4ED1A16BE36A022903D81A7942F00B
S3150000315040021A71E26B012A1A7942F010021A71C2
S315000031601A79C2F3001268D08DF801201A79C2F3D9
S3150000317000128DF801201A79C2F300128DF8012091
S315000031809DF801201A796FF3C3021A71A269AAB1D8
S3150000319094F8490090B1032910D9936810685D68C6
S315000031A0626BCB1E9BB20021A847A26BE36A033A6F
S315000031B00320C4E90F02012184F84E105A7A9206C0
S315000031C0FCD5DB7CDBB28DF8003001239DF80020B6
S315000031D084F84D30EFF3058003B0BDE8304027F0AA
S315000031E0AFBF94F84E30F3B9E36B002BF2D0032B4C
S315000031F0E26A4FD0022B33D0012B50D0606B216C8A
S31500003200537A9B06FCD5D37C4354E36B012B04D144
S31500003210E16A0A796FF386120A71226C013B013268
S31500003220C4E90F32D6E7002384F84E30EFF3058069
S3150000323003B0BDE8304027F083BF8DF802201A792D
S31500003240C2F300128DF802201A79C2F300128DF82B
S3150000325002209DF802201A7942F008021A7195E7B9
S31500003260137943F0100313711379C3F300138DF828
S3150000327004301379C3F300138DF804301379C3F3C4
S3150000328000138DF804309DF80430137943F00803D9
S315000032901371B3E7137943F040031371AEE794F863
S315000032A04A1001F0FF0031B1517841F0040151702C
S315000032B084F84C30A2E7537A60F3C3035372537811
S315000032C043F0080353705378DBB28DF8033053781C
S315000032D0DBB28DF803305378DBB28DF803309DF8FE
S315000032E003308BE78CF102002DE9F04182B0EFF359
S315000032F0058027F027FFEFF30383A3F1100040B208
S31500003300019302F095FFEFF303835A4A0193103BB2
S315000033105BB2126852F833301C6894F84750002D9F
S3150000332048D194F8493003F0FF02002B3BD194F8C2
S315000033304F10E36B002958D14BB1226C606BE16AE8
S31500003340805C8874013B0132C4E90F325BBB94F99F
S315000033503130002B0DDB5A0920320121464803F09B
S315000033601F0301FA03F340F82230BFF34F8FBFF378
S315000033706F8F94F93250E46A284602F059FF002D07
S3150000338040DB6B099B0003F1604303F561430122B7
S3150000339005F01F0502FA05F5C3F88051E27942F0FF
S315000033A04002E2711D60EFF3058002B0BDE8F04116
S315000033B027F0C6BE94F84630032B19D0012B94F89B
S315000033C044602AD8012D34D0E36A9E7494F84830BC
S315000033D0013D013384F8475084F84830EFF3058007
S315000033E002B0BDE8F04127F0ABBE84F84F20ADE750
S315000033F094F84820022A38D094F8446082B994F8A8
S315000034004560DFE7E37943F04003E371EFF30580BE
S3150000341002B0BDE8F04127F093BE94F84820EDE7EE
S31500003420022ACFD1032B04BF94F8456046F001066B
S31500003430C8E76369002BC7D094F8492002F0FF075C
S31500003440002AC1D1A26B002ABED09A681868D2F8A9
S315000034500480A38F616B3A46C047A36B84F84F5034
S31500003460C4E90F7394F84750AEE794F8501000295A
S31500003470C2D17EE78CF1020000E100E010B582B017
S31500003480EFF3058027F05EFEEFF30383474A0193CF
S31500003490103B5BB2126852F833301C6894F849301E
S315000034A01BB194F84720012A54D0E36B002B3AD085
S315000034B0E36A5A7A94F932106FF386125A725A7A7C
S315000034C0C2F380128DF802205A7AC2F380128DF868
S315000034D002205A7AC2F380128DF802209DF802204B
S315000034E0DA79002902F0BF02DA710DDB4B092033CD
S315000034F001222F4801F01F0102FA01F140F82310C2
S31500003500BFF34F8FBFF36F8FEFF30383A3F1100069
S3150000351040B2019302F08CFEEFF3058002B0BDE8E5
S31500003520104027F00DBE94F84A30FBB9E36A5A788A
S3150000353042F008025A705A78D2B28DF803205A78AF
S31500003540D2B28DF803205A78D2B28DF803209DF8B6
S315000035500320AEE794F85030002BA6D1E36A5978E1
S3150000356041F00401597084F85020A2E794F9310023
S3150000357002F05EFE94F93130002B09DB5A09603205
S3150000358003F01F0301210A4801FA03F340F8223031
S31500003590E36A5A7842F004025A705A7901216FF3AD
S315000035A000025A7184F84C1083E700BF8CF10200C8
S315000035B000E100E000B583B0EFF3058027F0C2FD1F
S315000035C0EFF303833A4A0193103B12685BB252F859
S315000035D033301868C36A5A7A12F0010204D05A7A54
S315000035E06FF300025A720122597A890705D5597A72
S315000035F06FF3410142F002025972597AC90605D5A4
S31500003600597A6FF3041142F010025972597A490738
S3150000361005D5597A6FF3820142F004025972597A3C
S3150000362011F0080F05D0597A6FF3C30142F0080272
S31500003630597212F0130F17D00123D10780F84B30BF
S315000036402DD580F85330FFF7EDFAEFF30383A3F19E
S31500003650100040B2019302F0EBFDEFF3058003B0DA
S315000036605DF804EB27F06CBD12F0080F10D05A7A03
S315000036706FF304125A725A7A6FF3C3025A7290F8B1
S315000036804930002B14BF02210321FFF761FADCE762
S3150000369090F84C100029D8D05207D6D5E7E7D306C4
S315000036A003D5102380F85330CDE70223C9E700BFC6
S315000036B08CF1020000B583B0EFF3058027F042FDE0
S315000036C0EFF30383084A0193103B12685BB252F88A
S315000036D033301B681A6898689047EFF3058003B08B
S315000036E05DF804EB27F02CBD8CF1020000B583B029
S315000036F0EFF3058027F026FDEFF30383084A0193D5
S31500003700103B12685BB252F833301B68D3E90120D4
S315000037109047EFF3058003B05DF804EB27F010BD8A
S315000037208CF10200114A136870B4040A9C4216D246
S315000037305668C0B200F11005012356F8246003FA5A
S3150000374005F535420BD069B100EB0410936853F8C8
S315000037502030C3F3400300200B7070BC7047032079
S3150000376070BC7047184670BC704700BF8003FE1FD0
S31500003770084B1A68000A904207D241B1DA68430141
S31500003780043200209B580B807047032070470120AD
S31500003790704700BF8003FE1F084B1A68000A90425C
S315000037A008D249B1DA684301043200209B581B0C49
S315000037B00B80704703207047012070478003FE1F6F
S315000037C070B4134C2268030A93421BD26668C0B2D7
S315000037D000F11005012256F8236002FA05F535427C
S315000037E010D091B1E4685B01043402FA00F01C5970
S315000037F083B233EA144313BF002000200A70087016
S3150000380070BC7047032070BC7047104670BC704790
S315000038108003FE1F0C4B10B41C68000AA0420ED297
S315000038206AB1DB685DF8044B083303EB401022EA0B
S3150000383001030A4042EA0342426000207047032027
S315000038405DF8044B704700BF8003FE1F144A70B436
S315000038501468030AA3421DD25668C0B200F11004D0
S31500003860012556F8236005FA04F4344212D0A94221
S3150000387010D8D26802F1080202EB431305FA00F0F1
S315000038805D680AD045EA0040000C0004586070BC30
S3150000389000207047032070BC7047284380B2F5E7CC
S315000038A08003FE1F18B1034B036000207047012000
S315000038B0704700BF07010301012920D870B4124CDC
S315000038C02368020A9A4217D26668C0B200F1100550
S315000038D0012356F8226003FA05F535420CD003FAA7
S315000038E000F083B269B10020E16852010831184343
S315000038F0505070BC00207047032070BC70470320F6
S31500003900704700040B46EFE78003FE1F012957D8D6
S315000039102E4BF0B41C68020AA2424ED25D68C0B2B9
S3150000392000F11006012455F82250B4402C4244D030
S3150000393000EB02109C681D6954F82030002941D024
S3150000394043F00401224E0E40EFF31087012383F368
S315000039501088204B1A8892B222B94FF0400CEA70B8
S3150000396085F803C01A88013292B21A8087F310884C
S31500003970CF0354F8202007D5174F22F480320F408A
S3150000398044F8202044F8207044F82060EFF31081BA
S31500003990012282F310881A8892B21AB11A88013A63
S315000039A092B21A801B889BB213B98022EB70EA7020
S315000039B081F310880020F0BC70470320F0BC7047EC
S315000039C00320704723F00401BCE700BF8003FE1FFD
S315000039D0D5FC011FE003FE1FD5FC001FB2B10C4B46
S315000039E010B41C68000AA0420CD2DB6822EA01046B
S315000039F0400108330A4042EA0442C2505DF8044BD3
S31500003A000020704703205DF8044B70470320704781
S31500003A108003FE1FD2B10E4B70B41C68000AA04290
S31500003A2011D2DD68400102EA01032E582C583343B7
S31500003A3061EA02029BB2210C1A4009040A432A5089
S31500003A40002070BC7047032070BC7047032070478D
S31500003A508003FE1FF8B500283BD009681E4F4FF0C3
S31500003A60000C01EBC00066464FF0010E8D8840F257
S31500003A70024295424FF000030BD10C680EFA03F296
S31500003A8004F0B854D2B2B4F1807F0CBF164342EAB8
S31500003A900C0C0133032B06D037F813209542ECD0DB
S31500003AA00133032BF8D108318142DFD16FEA0C0CC8
S31500003AB05FFA8CF4012002F0B9FC084B93F8BB24A2
S31500003AC01643264083F8BB640120BDE8F84002F0A7
S31500003AD07DBC0646FF24EDE75CEB020000E00140FA
S31500003AE070B582B002AB002403F8044D05461846B3
S31500003AF00E4602F0FFF99DF80430DB0715D5202DA0
S31500003B0010D8012E0ED80A4B1B691A7813BF15431D
S31500003B1002F0300222EA050505F0300520461D7048
S31500003B2002B070BD032002B070BD062002B070BDA9
S31500003B308003FE1F2DE9F0470746011D0088FFF7A9
S31500003B4089FF3B88002B4ED0DFF8A4E027490022EE
S31500003B504FF0010C4FF0400A4FF080097B68DEF809
S31500003B60106053F83250DEF8084003EBC2039B881E
S31500003B70180ADBB203EB0013EFF310888CF31088FE
S31500003B80088880B210B9F07086F803A00888013062
S31500003B9080B2088088F3108815F4803F54F823001B
S31500003BA007D020F4803025F4803844F8230044F808
S31500003BB0238044F82350EFF310808CF310880B8891
S31500003BC09BB21BB10B88013B9BB20B800B889BB24F
S31500003BD013B9F37086F8039080F3108801323B889E
S31500003BE092B29342BAD80020BDE8F087E003FE1FE8
S31500003BF08003FE1F18B143680BB1FFF79BBF01207E
S31500003C00704700BF00283AD04368002B37D02DE913
S31500003C10F04186B006AD00230922019305F8142D64
S31500003C20184A194CD2F80C8002930646CDE90333A4
S31500003C30059302A92846C047029BE3600A22BDF805
S31500003C400C308DF8042002A9059A626028460127E7
S31500003C502360C047029B8DF80570284602A9A36021
S31500003C60C0477368029A22612BB13046FFF762FFA4
S31500003C7006B0BDE8F081384606B0BDE8F081012007
S31500003C80704700BF10EC02008003FE1F2DE9F041D3
S31500003C902F4C23684FEA1028984584B053D26268A7
S31500003CA0C5B205F11003012752F8282007FA03F3DD
S31500003CB0134248D00E4604A902AA034641F80C2D29
S31500003CC03846ADF80C300296ADF8007005EB0815D5
S31500003CD0FFF7C0FE2169A068EFF3108487F3108810
S31500003CE01C4B1A8892B212B94027CA70CF701A8834
S31500003CF0013292B21A8084F31088F40350F825201A
S31500003D0007D522F4803226F4803440F8252040F886
S31500003D10254040F82560EFF31080012282F31088D9
S31500003D201A8892B21AB11A88013A92B21A801B887E
S31500003D309BB213B98022CB70CA7080F31088002022
S31500003D4004B0BDE8F081032004B0BDE8F08100BFF7
S31500003D508003FE1FE003FE1F80B1094B02689A42F2
S31500003D600AD110B44468427CA35C61F30103A354F6
S31500003D7000205DF8044B704707207047012070470C
S31500003D805543490068B1084B02689A4207D1416819
S31500003D90427C8B5C43F080038B54002070470720E5
S31500003DA070470120704700BF5543490068B1084B72
S31500003DB002689A4207D14168427C8B5C6FF3C71355
S31500003DC08B5400207047072070470120704700BFC2
S31500003DD05543490020B1034B1B6803600020704720
S31500003DE00120704784EB020090B11A4B02689A4298
S31500003DF00CD190F9103013F1210F29D0002B10B5FA
S31500003E0008DA184602F014FA002010BD07207047A1
S31500003E10012070475909203101220F4C03F01F037E
S31500003E2002FA03F344F82130BFF34F8FBFF36F8FCD
S31500003E3090F91030002BE4DB590903F01F006031C4
S31500003E40824044F82120184602F0F2F9002010BD05
S31500003E50642070475543490000E100E048B3234B16
S31500003E6002689A4223D130B5044683B090F9100017
S31500003E70637CADF806300022062310F1210FADF861
S31500003E8004208DF804300BD0904214DA02F0D0F9F9
S31500003E90174B94F910201B6853F8323000221A6031
S31500003EA001A802F039FA0020206003B030BD0720D7
S31500003EB07047012070474209203201230D4900F066
S31500003EC01F0003FA00F041F82200BFF34F8FBFF343
S31500003ED06F8F94F910000028D8DB4209603200F099
S31500003EE01F05AB4041F82230D0E700BF55434900DB
S31500003EF08CF1020000E100E0A8B1154B02689A427D
S31500003F000FD190F9103013F1210F1ED010B50446D1
S31500003F10184602F08DF994F91020002A05DA0020DF
S31500003F2010BD072070470120704753099B0003F11D
S31500003F30604303F56143012102F01F0201FA02F218
S31500003F40C3F8802100201A6010BD6420704700BFAE
S31500003F505543490000B583B0EFF3058027F0F2F82A
S31500003F60EFF303830F4A0093103B12685BB252F8DB
S31500003F7033301B689A6832B102A8D9685B7C01931A
S31500003F8040F8081D9047EFF30383A3F1100040B2F9
S31500003F90009302F04DF9EFF3058027F0D1F803B056
S31500003FA05DF804FB8CF10200F0B583B002AB00248F
S31500003FB043F8044D15461F4E44801A460C46336995
S31500003FC0297898479DF904302374A0B913F1210F7D
S31500003FD011D06A7818491201002BD2B2086822DB88
S31500003FE003F1604101F5614181F8002350F8331077
S31500003FF02A790C600AB903B0F0BD184602F018F928
S3150000400094F91020002AF6DB53099B0003F1604364
S3150000401003F5614302F01F02012101FA02F2C3F81F
S3150000402080211A60E7E7054903F00F0631440A7656
S31500004030DCE700BF10EC02008CF10200FCEC00E0B3
S31500004040F0B587B000294CD000284AD006462C4847
S3150000405000230622CDE90133CDE9033305930D464E
S31500004060C3688DF8042002A901A8984704460028D1
S3150000407034D1029ABDF80E3072602A78C3F38003F9
S315000040800133B2EBC30F34D2AB6813B16B78FF2B9D
S3150000409034D001A8ADF8062002F00AF9044620BB88
S315000040A0D5E90223C6E902232B7873742A4601A8B0
S315000040B03146FFF779FF7268737CE878D15CAF7898
S315000040C06D7960F30511D154D15C0E4867F3010197
S315000040D0D154D15C65F3C711D1543060204607B086
S315000040E0F0BD0124204607B0F0BD0824204607B0E5
S315000040F0F0BD40F27A54204607B0F0BD0324EDE748
S3150000410010EC02005543490010B584B0EFF305806A
S3150000411027F018F80F4BDC68636833B10321A268F7
S315000041208DF80810039202A89847E16841F24842C8
S315000041308B5C43F001038B54EFF30383A3F1100070
S3150000414040B2019302F074F8EFF3058026F0F8FF11
S3150000415004B010BDE403FE1F10B584B0EFF3058074
S3150000416026F0F0FF0F4BDC68636833B10121A268CB
S315000041708DF80810039202A89847E16841F2484278
S315000041808B5C43F002038B54EFF30383A3F110001F
S3150000419040B2019302F04CF8EFF3058026F0D0FF11
S315000041A004B010BDE403FE1F70B1084A084B126844
S315000041B09A4207D1074B1B685A6803EB82030360D8
S315000041C00020704712207047012070479403FE1F9D
S315000041D0494D46009CB17F4020B1034B1B680360EC
S315000041E0002070470120704728EC020008B5154BE7
S315000041F0196889B103F57F70002201E053F8041FA6
S3150000420083420A44FAD13AB90F4B19680B0CB3F53D
S31500004210807F04D000BEFDE700BE00BEFCE70B6851
S31500004220013B033307D824310422084829F032FE23
S3150000423020B100BEFDE700BE00BEFCE7044B054A08
S315000042401A6008BD34ED02009CB17F4058ED0200B3
S315000042509403FE1F494D4600A8B10C4A0C4B126848
S315000042609A420ED10B4B1B685A6800F1100103EB02
S31500004270820353F8042F40F8042B8142F9D1002021
S315000042807047122070470120704700BF9403FE1F3D
S31500004290494D46009CB17F4040B13AB1F0B51B4C48
S315000042A01B4B24689C4203D01220F0BD01207047AE
S315000042B0184B1E681EB3184B07781B68002404E0D1
S315000042C00134B44203F1080319D09D79BD42F7D1F8
S315000042D093F805C04588B5EB9C0FF1D1DD7990F8D0
S315000042E001C005F0070EE645EAD1B1EBD50FE7D1DF
S315000042F09B881470C3F3090353800020F0BDDF21AF
S31500004300FF23117053800B20F0BD00BF9403FE1FE6
S31500004310494D46003804FE1F8CF1020038B131B118
S315000043208A4A8B4B12689A4203D0122070470120AA
S3150000433070472DE9F041874D0278AC6805EB84049F
S31500004340A3789A4264D24FEA121C04EB8C0702F05F
S315000043500F06B7F8088028FA06FE1EF0010F57D0A0
S31500004360072EBF7A0AD904EB8C0C02F007069CF8DC
S315000043700B2002F00F0217444FEA1828DFF8DCC1C1
S31500004380754A1CF8066006EA08061B09925D0233A8
S315000043903A449B0003EB4203E618E25A96F90160A1
S315000043A0C2F30902002E05EB820308DB002B2FD097
S315000043B04678002E4BD040F27950BDE8F08115F8D2
S315000043C0222045785208DDB14FF0020C0126042761
S315000043D01C78E40705F1FF35EDD5052A0CD8DFE892
S315000043E002F0342D221C1A039A78D41C1CFB02629C
S315000043F002EB940203EB82031A785208002DE7D1F0
S31500004400042A00F2A080DFE802F06262624F3B00FD
S315000044104FF4AF60D1E70833EEE79A7817FB0262F4
S3150000442003EB8203E8E71C799A7812FB04F2033265
S31500004430033402EB940203EB8203DDE71A790332BD
S3150000444002F4FE720C321344D6E70C33D4E7DF785D
S315000044504088D4F804C03E46C6F30304C7F30317E6
S3150000446001264F728C728E8000284FD135F822209B
S315000044709B78CB800CEB02220A600872C8609CE72E
S31500004480D8785C785D680D6000230246C2F30302AB
S31500004490C0F303108B800B72CB60A307CC804872ED
S315000044A08A7288D5002088E7D8785C789D78CC8099
S315000044B00246C0F30310C2F3030204330424487215
S315000044C000208A728D80CB600C72086075E7DD78FB
S315000044D01E7940882C46C5F303154D72B5B2C4F358
S315000044E0030485428C728D8010D9DC889D68012A70
S315000044F000FB04540C601DD0022A0AD0B3F8013028
S31500004500CB8000220A72CA60002BCBD140F27A50CF
S3150000451053E79C78033600FB04F202EB9606184438
S31500004520F21C03EB8203027BCA80CB600C72002A6A
S31500004530B8D1EBE718440023027BCA800B72CB602C
S31500004540002AAFD1E2E7642037E700BF9403FE1FDD
S31500004550494D460034ED020088EB020008EC0200EB
S31500004560034B04301B6823F820100020704700BF5F
S31500004570F403FE1F034B021D1B68002023F82200D4
S31500004580704700BFF403FE1F034B1A68137843F00D
S315000045908003137000207047F403FE1F034B1A6854
S315000045A013786FF3C713137000207047F403FE1FD0
S315000045B020B1034B1B680360002070470120704741
S315000045C048EC020060B1012808D1094B1B680020A5
S315000045D040214122187119711A71704701207047E4
S315000045E0034B1B6840214122987099709A7070475E
S315000045F0F403FE1FF0B587B0002832D004461A48EF
S3150000460000230B22CDE90133CDE90333059302A93B
S31500004610C3688DF8042001A89847054610B12846BE
S3150000462007B0F0BD114F029B3B6001A801F0C6FD2B
S31500004630606858B1A3683E6803EB8000598813F898
S31500004640042B0432834226F82210F7D12378002B5C
S31500004650E5D03A681378284643F08003137007B014
S31500004660F0BD0125DBE700BF10EC0200F403FE1FDE
S31500004670062070470620704790B10A4B02689A429E
S315000046800CD190F90630084AC033126852F823104C
S315000046906FF3186142F82310002070470720704717
S315000046A001207047004354440004FE1F20B1034B11
S315000046B01B68036000207047012070474CEC020025
S315000046C010B31A4B02689A421CD1E9B1184B90F903
S315000046D006201B68DB8900209BB28871180415D45C
S315000046E0144B53F82230D87800F0C000802813D03D
S315000046F0DB8940289BB28B8015D078B94FF4803384
S315000047000B60704707207047012070475BB29342E9
S3150000471004BF01238B71E3E79B898B804FF4807381
S315000047200B6000207047DBB28B80F7E700435444F0
S31500004730FC03FE1F0000FE1FF0B1114A0168914202
S31500004740034617D190F9062012F1210F16D00D4914
S3150000475002F1C000096830B451F820400A4D6FF3E9
S31500004760186441F82040002145F8221008461960D7
S3150000477030BC704707207047012070470B207047F8
S31500004780004354440004FE1F0000FE1F68B31D4B87
S3150000479002689A422BD190F9063013F1210F28D0E6
S315000047A0194A52F823209168F9B15168E9B1D178D4
S315000047B001F0300110291ED0202910D0134AC03331
S315000047C0126852F823106FF3104142F8231052F882
S315000047D0231041F0807142F8231000207047916841
S315000047E0890702D152689207E8D001207047072056
S315000047F070470B2070479168C907F6D45268D007F6
S31500004800DCD5F2E7004354440000FE1F0004FE1FFF
S31500004810F0B583B00191009200283ED0214990F96D
S31500004820062051F82260F17811F0C0012ED053B362
S315000048301D4C0568A5422DD1802902D1F489A4B268
S315000048405CB31A4C1A4D24682D68C03254F8227095
S315000048506FF3186744F822702A786FF304122A70EF
S31500004860019A0AB1019A7260009A0AB1009AB2607E
S31500004870802915D001B9F381FFF788FF2B7843F023
S3150000488010032B7038B1132003B0F0BD064C056839
S31500004890A542D6D0072003B0F0BD012003B0F0BD7D
S315000048A0B381E9E70000FE1F004354440004FE1FE5
S315000048B0FC03FE1FF0B583B001919DF820600092C5
S315000048C0BDF8245000283BD0214A90F9064052F802
S315000048D02410CA7802F0C002802A34D1002D2FD0CD
S315000048E0002B2DD01B4A076897422FD11A4A1B4F1F
S315000048F012683F68C03452F824C06FF3186C42F84F
S3150000490024C03A786FF304123A70019A0AB1019AF8
S315000049104A60009A0AB1009A8A60CA788D81CB8172
S315000049208B7BCB7366F30512CA70FFF72FFF3B78BC
S3150000493043F01003002814BF132000203B7000E052
S31500004940012003B0F0BD062003B0F0BD0720F8E754
S315000049500000FE1F004354440004FE1FFC03FE1F1C
S3150000496040B339B30B682BB3DA7812F0C00F1DD100
S31500004970534B02689A422AD02DE9F047514E3378BC
S3150000498086B00746884623BB4F4801930822C46871
S315000049908DF80420CDE90233CDE904330DEB020195
S315000049A001A8A04740B106B0BDE8F087DB89B3F5A2
S315000049B0807FDDD901207047444D029B2B6001A802
S315000049C001F076FC814600285CD00A20EBE708203F
S315000049D070473F4B1D68B8F80460002302E00133BE
S315000049E0702B48D003F1C00459B255F82420C2F305
S315000049F008029642F3D1374E55F8242056F8230084
S31500004A00C2F30802BA8030BBD8F800C0624600E0A4
S31500004A101032D07810F0C00F1CBF907BD073907806
S31500004A2010F0C000F4D1294C98F806202468DFF86D
S31500004A3090E0257860F30415257046F823C0B97117
S31500004A40C7F800E05AB92378104643F010032370E4
S31500004A5006B0BDE8F087082006B0BDE8F087384606
S31500004A60FFF794FE237843F01003002814BF1320A9
S31500004A700020237097E7D5F87C32C3F30803BB8088
S31500004A800B2090E7DFF84CA001A801F097FB494600
S31500004A904FF4E072504629F017FA2B68C3F804A0C9
S31500004AA01A7B062542F001021A738DF8045002A9FA
S31500004AB001A8A047064B029D1D60012333708AE7BB
S31500004AC000435444F803FE1F10EC0200FC03FE1FD3
S31500004AD00004FE1F0000FE1F0620704706207047D8
S31500004AE020B1034B1B68036000207047012070470C
S31500004AF0E4EC0200324A136893F8281001F0300300
S31500004B00102B0CD0202B02D000239361704790F815
S31500004B102B302C499B0931F8131059B97047038D76
S31500004B2010B403F00303284C34F8133003BB5DF8CC
S31500004B30044B7047D2ED047A90F82B30B8EE676AD2
S31500004B4007EE901AF8EE676A03F01F03C6EE267AA0
S31500004B5007EE103AB8EE477AF7EE006A37EE267A95
S31500004B6067EE877AFCEEE77A17EE903A9361704724
S31500004B7007EE903A4B06B8EE677A19D4032102EB9A
S31500004B808101D1ED016A038D5DF8044BF8EE666A8A
S31500004B90C3F3052386EE876A013307EE903AFAEEF1
S31500004BA0EF7A67EE867AFCEEE77AC2ED067A704710
S31500004BB0038D13F0100F0CBF03210021DFE700BFA8
S31500004BC09803FE1FF0EC020000ED0200A9B10628D2
S31500004BD010B430D0052812D0042834D020B30128D0
S31500004BE041D0022837D0032845D1244C0023E06960
S31500004BF00B60026A02F0070208E0012070471F4CB2
S31500004C000023E0690B60026AC2F3027290F8263054
S31500004C1003F0070304EB830300205B6823FA02F228
S31500004C200A605DF8044B7047144C0860E069026A3C
S31500004C30C2F30232EAE7114C0023E0690B60026A14
S31500004C40C2F30262E2E70D4C0023E0690B60026AE0
S31500004C50C2F30242DAE7094C0023E0690B60026AFC
S31500004C60C2F30212D2E7054C0023E0690B60026A28
S31500004C70C2F30222CAE70320D3E700BF9803FE1F50
S31500004C8038B50D784B788A78002465F30E3463F3D3
S31500004C900A24CB780D7962F3061463F302044A7989
S31500004CA08B7965F3124462F31E74054663F31A6446
S31500004CB0002001F0BBFB2C620020BDE8384001F06B
S31500004CC085BB00BF10B5174BDC6994F84120D007AF
S31500004CD00CD51A6894F8263092F82820510603F06D
S31500004CE007030AD4052B0DD0032B0BD094F84130C3
S31500004CF0DB074FF0000008D410BD228DD206F3D496
S31500004D00052BF1D140F2971010BD01F08FFB94F8FE
S31500004D1041306FF3000384F84130002001F056FB68
S31500004D20002010BD9803FE1F38B5084BDC69054608
S31500004D30002001F07BFB94F8303065F3000384F823
S31500004D403030002001F042FB002038BD9803FE1FE2
S31500004D50084B10B5DC69002001F068FB94F852306E
S31500004D6043F0010384F85230002001F02FFB0020AD
S31500004D7010BD00BF9803FE1F084B10B5DC6900206C
S31500004D8001F054FB94F852306FF3000384F852306C
S31500004D90002001F01BFB002010BD00BF9803FE1F82
S31500004DA0084B10B5DC69002001F040FB94F83E305A
S31500004DB043F0800384F83E30002001F007FB00201A
S31500004DC010BD00BF9803FE1F084B10B5DC6900201C
S31500004DD001F02CFB94F83E306FF3C71384F83E3095
S31500004DE0002001F0F3FA002010BD00BF9803FE1F5B
S31500004DF0084B10B5DC69002001F018FB94F853301D
S31500004E0043F0010384F85330002001F0DFFA00205C
S31500004E1010BD00BF9803FE1F084B10B5DC690020CB
S31500004E2001F004FB94F853306FF3000384F8533019
S31500004E30002001F0CBFA002010BD00BF9803FE1F32
S31500004E4038B5084BDC690546002001F0EFFA94F806
S31500004E50243065F3061384F82430002001F0B6FAF6
S31500004E60002038BD9803FE1F03788B4214D3437885
S31500004E708B4211D383788B420ED3C3788B420BD3EC
S31500004E8043798B4208D30379994205D880798142C8
S31500004E908CBF0520002070470520704730B583B0D1
S31500004EA000F0A6FF1A4B01901D68186810F002006A
S31500004EB028D0DDED017A174CF8EE677AF7EE006A36
S31500004EC086EEA77A0020186094F82320D1B2DFED91
S31500004ED0127ADFED126A27EE277AC6EE877AFCEEA3
S31500004EE0E77A17EE902A013AB2F1807F0CD25A6027
S31500004EF001F0F001F025072284F8235098601A602B
S31500004F0084F8231003B030BD12201D6003B030BDFD
S31500004F1010E000E000ED00E00024744900401C466B
S31500004F2008B1FFF7BBBF0320704700BF052827D095
S31500004F30144B042870B5DC6903D194F88034DB0780
S31500004F401BD4054600200E4601F070FA94F83E3058
S31500004F506FF3C71384F83E3094F83E3066F30613B9
S31500004F6084F83E3094F83E3065F3020384F83E3010
S31500004F70002001F02BFA002070BD4FF4C87070BD00
S31500004F80032070479803FE1F30B583B0002953D025
S31500004F900246002870D0414CE36993F8AA0010F04D
S31500004FA0010063D193F8A000196A2568C1F30231A4
S31500004FB08DF80010196AC1F302218DF80110196AE3
S31500004FC0C1F302118DF80210196AC1F302018DF8BE
S31500004FD00310196AC1F302418DF80410196AC1F36E
S31500004FE002718DF805101B6AA968C3F3026300F00D
S31500004FF003008DF8063009B1032840D0EB680BB1E9
S31500005000022844D01146012000F08CFFE4690020FC
S3150000501001F00CFA94F8403043F0800384F84030F5
S3150000502094F8403043F0010384F84030002001F04A
S31500005030CDF9002003B030BD184BDD6995F841303D
S31500005040DB0715D408460C4601F0F0F995F8403018
S3150000505064F3000385F8403095F8403064F3C713D5
S31500005060204685F8403001F0B1F9204603B030BD46
S315000050704FF4CB7003B030BD012003B030BD2969B9
S315000050806846FFF7F1FE0028BCD00520EEE7696907
S315000050906846FFF7E9FE0028F7D1B3E79803FE1F3D
S315000050A038B50B4B04461B68002093F8225001F0DC
S315000050B0BDF994F88034DB0705D594F8813423EAEA
S315000050C0050384F881340020BDE8384001F07EB93C
S315000050D09803FE1F0620704706207047062070477B
S315000050E00620704728B321B3134BDB6993F82620BB
S315000050F0C2F3020202701A6AC2F302320A701A6A14
S31500005100C2F302224A701A6AC2F302128A701A6A3B
S31500005110C2F30202CA701A6AC2F302420A711A6A1A
S31500005120C2F302724A711B6AC3F302638B710020D9
S3150000513070470120704700BF9803FE1F05292ED82F
S31500005140DFE801F00A11181F260390F82A0000F084
S31500005150010080F00100704790F8360000F0010071
S3150000516080F00100704790F8380000F0010080F0F0
S315000051700100704790F8900400F0010080F00100F3
S31500005180704790F8320000F0010080F0010070478F
S3150000519090F8800400F0010080F0010070470020C4
S315000051A0704700BF30B5A1F1020483B04FF6FF731C
S315000051B0B4FA84F40546640901930A4A04E0019BA3
S315000051C043B1019B013B01932946D069FFF7B6FF26
S315000051D0A042F4D1019B002B0CBF4FF4CD700020F0
S315000051E003B030BD9803FE1F70B5344C86B0204620
S315000051F000F086FE06A800230322009300F8182D6F
S315000052002F4ACDE90233CDE9043302A9D368984782
S31500005210029DE5614FF6FF73019395F83630DA0784
S3150000522005D50BE0019B33B1019B013B019395F83A
S315000052303C30DB07F6D5019B002B39D0002001F06E
S31500005240F5F895F8A530062262F3020385F8A53035
S31500005250002001F0BBF82368E669D3E906120025B1
S315000052604FF6FF732261174A019328464FF4004315
S31500005270C4E902236160A561636101F0D7F896F87D
S31500005280803443F00103284686F8803401F09EF806
S3150000529001210420FFF786FF054648B9E369184651
S315000052A01A6A93F82630FFF7FBFE284606B070BD53
S315000052B04FF4CD75284606B070BD00BF9803FE1F9B
S315000052C010EC020000127A00052828D838B5524D95
S315000052D0EA6992F8263003F0070398421CD0052BA2
S315000052E012D092F82A30DB070ED50128044618D1D1
S315000052F092F84030DB097DD110462146FFF71EFFAC
S3150000530000283BD1002038BD2B6893F828305C0676
S315000053102DD403239842E8D140F2911038BD0320E2
S31500005320704710462146FFF709FF0028EAD0032CF4
S31500005330ED6935D0052C2CD0002C49D195F83C30A0
S31500005340D9072AD5204601F071F895F8363043F092
S31500005350010385F83630002001F038F82046012197
S31500005360FFF720FF0028CDD04FF4CD7038BD138D48
S3150000537013F0100F0CBF03230023CBE70020ED69C9
S3150000538001F054F895F8383043F0010385F83830C9
S31500005390E1E795F83C309B0610D440F2931038BDF7
S315000053A095F83C301A07F8D5002001F03FF895F83B
S315000053B0323043F0010385F83230CCE7002001F0AB
S315000053C035F895F82A3043F0010385F82A30C2E70C
S315000053D0002001F02BF8042CBDD801A353F824F0CB
S315000053E04B5300008553000009540000AF530000E2
S315000053F0FB53000040F2951038BD95F8803443F019
S31500005400010385F88034A6E795F8903443F001034C
S3150000541085F890349FE700BF9803FE1F05281DD826
S3150000542008B5431E012B014608D9042806D068B1E9
S31500005430032815D005281FD0002008BD194BD869B0
S31500005440FFF77CFE38B140F2911008BD154AD069CD
S31500005450FFF774FEF0B94FF4C87008BD032070471B
S31500005460104AD069FFF76AFE0028F4D0D36993F892
S315000054703C301B0713D40AE00A4AD069FFF75EFEE8
S315000054800028E8D0D36993F83C30990607D440F257
S31500005490931008BDD36993F83C30DA07F7D54FF47B
S315000054A0C97008BD9803FE1F70B506464FF6FE7418
S315000054B040F2931501E0013C05D03046FFF7AEFF00
S315000054C0A842F8D000B970BD6FF4C873C318012B99
S315000054D098BF002070BD00BF30B583B04FF6FF7394
S315000054E00446012001930D4600F0A0FF02A8002308
S315000054F000F8053D00F0EEFB94F8AA30D90604D476
S3150000550094F8A030C3F3001353B1019B013B019300
S31500005510019B002BF0D1012000F058FF03B030BDF5
S3150000552094F8AA2063F300024FF6FF7384F8AA20CA
S31500005530019302E0019B013B019394F8AA30DA063D
S3150000554003D494F8A030DB0602D5019B002BF1D1E1
S3150000555094F8A030042D0CBF43F0030365F3010358
S3150000556084F8A0304FF6FF73019302E0019B013BE4
S31500005570019394F8AA30D80603D494F8A030D9063B
S3150000558002D5019B002BF1D194F8AA30042D0CBF53
S3150000559043F001036FF3000384F8AA304FF6FF735C
S315000055A0019302E0019B013B019394F8AA30DA06CD
S315000055B003D494F8A030DB0602D5019B002BF1D171
S315000055C09DF8030000F09AFB012000F0FFFE03B0F7
S315000055D030BD00BF0428124B0BD0022809D01A6830
S315000055E092688A4204D3D86990F82A30DB0714D42B
S315000055F07047D86990F82A20D207F0D590F8322063
S31500005600D207ECD590F83620D207E8D590F83820A6
S31500005610D207E4D50421FFF75FBF0321FFF75CBF84
S315000056209803FE1F052837D82DE9F843AE4E2DED19
S31500005630028B0D4604460146F069FFF77FFD0746DB
S31500005640002842D1042C57D0012C44D034B3032C6B
S3150000565060D0052C00F0B880F56900F0E7FE032C59
S3150000566000F09C80042C4ED0022C3ED195F890344C
S315000056706FF3000385F89034002000F0A7FE204663
S315000056800221FFF78FFD002814BF4FF4CD700020D4
S31500005690BDEC028BBDE8F88303207047F56995F8E9
S315000056A03C30DB0700F1818095F8AA30DF0700F176
S315000056B0858095F8A030002000F0B8FE95F83630C9
S315000056C06FF3000385F83630D6E7F069FFF712FA74
S315000056D040F29110DCE7F56995F8AA30DA0767D44D
S315000056E095F8A030002000F0A1FE95F838306FF351
S315000056F0000385F83830BFE7F069FFF7D1FC38467C
S31500005700F56900F093FE95F880346FF3000385F891
S315000057108034B1E7F76997F83C30180745D497F815
S31500005720AA30D90700F1BD8097F8A0303168002073
S3150000573091F8275091F8208091F8219000F076FE9C
S3150000574097F8133405FA09F25BB25A4002EA0802E6
S315000057505340DBB287F81334002000F037FEF569BA
S31500005760002000F063FE95F813346FF3861385F876
S315000057701334002000F02AFEF569002000F056FEE2
S3150000578095F8A230052262F3030385F8A2300020C3
S3150000579000F01CFE0020F56900F048FE95F8323056
S315000057A06FF3000385F8323066E740F293106FE737
S315000057B028460321FFF790FEF56993E72846032163
S315000057C0FFF78AFEF56976E7002D70D033686978B1
S315000057D093F8242091425FD893F8262095ED017A1C
S315000057E007EE902AF8EE677AF4EEC77AF1EE10FA31
S315000057F052D493F8253007EE903AF8EE677AB4EE75
S31500005800E77AF1EE10FA47D42978032901D0002966
S3150000581042D1F069FFF792FC00284AD0F76997F861
S315000058203C309A06C1D497F8AA30DB0756D497F8CD
S31500005830A03095F80080002000F0F8FD3B8DB8F10F
